:100000000C943A010C944C010C944C010C944C014E
:100010000C944C010C944C010C944C010C944C012C
:100020000C944C010C944C010C944C010C944C011C
:100030000C944C010C944C010C944C010C944C010C
:100040000C944C010C944C010C944C010C944C01FC
:100050000C944C010C944C010C944C010C944C01EC
:100060000C944C010C944C010C944C010C944C01DC
:100070000C944C010C944C010C944C010C944C01CC
:100080000C944C010C944C010C944C010C944C01BC
:100090000C944C010C944C01000000000000005F27
:1000A00000000003000300143E143E14242A7F2A9B
:1000B000124333086661364955225000050300009B
:1000C000001C2241000041221C0014083E081408B4
:1000D000083E0808005030000008080808080060C2
:1000E00060000020100804023E5149453E00040211
:1000F0007F00426151494622414949361814127F16
:100100001027454545393E494949320101710907E2
:100110003649494936264949493E003636000000ED
:10012000563600000814224100141414141400411F
:1001300022140802015109063E4159555E7E090903
:10014000097E7F494949363E414141227F41414133
:100150003E7F494949417F090909013E4141493AE8
:100160007F0808087F00417F4100304040403F7FCA
:10017000081422417F404040407F020C027F7F02F2
:1001800004087F3E4141413E7F090909061E2121A5
:10019000215E7F09090976264949493201017F011B
:1001A000013F4040403F1F2040201F7F2010207F04
:1001B00041221C224107087008076151494543004C
:1001C0007F41000002040810200000417F0004026B
:1001D0000102044040404040000102040020545409
:1001E00054787F4444443838444444443844444474
:1001F0007F385454541804047E0505085454543C64
:100200007F0804047800447D40002040443D007F86
:100210001028440000417F40007C047804787C086A
:1002200004047838444444387C1414140808141422
:10023000147C007C080404485454542004043F44B3
:10024000443C4040207C1C2040201C3C4030403C32
:1002500044281028440C5050503C4464544C4400F2
:100260000836414100007F0000414136080002018C
:100270000204020011241FBECFEFD0E2DEBFCDBFCB
:1002800021E0A0E0B1E001C01D92A031B207E1F78A
:100290000E94FF070C9458090C9400000C940B0664
:1002A0008F929F92AF92BF92CF92DF92EF92FF9286
:1002B0000F931F93CF93DF93CDB7DEB72A970FB677
:1002C000F894DEBF0FBECDBF6D837E838F8398878A
:1002D00049875A8749011D2DA02EB12C89859A8501
:1002E0002817390708F4C901A816B906E8F08701EC
:1002F000940149855A856D817E818F8198850E9400
:1003000046052A960FB6F894DEBF0FBECDBFDF912B
:10031000CF911F910F91FF90EF90DF90CF90BF9002
:10032000AF909F908F9008952D813E813A832983CD
:100330008F8198859C838B830C2D940149855A85E8
:1003400069817A818B819C810E9446052D813E8145
:100350003A8329838F8198859C838B8387019501BC
:1003600049855A8569817A818B819C810E944605E5
:100370002D813E813A8329838F819885880D991D2F
:100380009C012A193B093C832B83950149855A8599
:1003900069817A818B819C810E9446058D819E8135
:1003A0009A8389832F8138853C832B839401A5010F
:1003B00069817A818B819C810E94460589859A8515
:1003C0002D813E81820F931F8A199B099A8389830D
:1003D0008F8198859C838B839401A50169817A81A3
:1003E0008B819C818CCF2F923F924F925F926F9224
:1003F0007F928F929F92AF92BF92CF92DF92EF92B5
:10040000FF920F931F93CF93DF93CDB7DEB7A697DD
:100410000FB6F894DEBF0FBECDBF4B015C01722E4C
:10042000632E7B012C014DA35EA38DA19EA1880F9D
:10043000991F03E010E0081B190B7A836983CDA094
:10044000DEA0CA0CDB1CDC82CB82422F562D6981D8
:100450007A818B819C810E941F059A828982DC822D
:10046000CB82472D562D69817A818B819C810E9498
:100470001F059A82898265012DA13EA1C21AD30A65
:10048000DC82CB82472D562D69817A818B819C81BC
:100490000E941F059A828982DC82CB82472D562DCD
:1004A00069817A818B819C810E941F052DA03EA0CD
:1004B000280C391C3A822982BC82AB82472D562DEA
:1004C00069817A818B819C810E941F0564018DA1C5
:1004D0009EA1C81AD90ADA82C982BC82AB82472D92
:1004E000562D69817A818B819C810E941F053A82F9
:1004F0002982BC82AB82472D562D69817A818B81FE
:100500009C810E941F05DA82C982BC82AB82472D82
:10051000562D69817A818B819C810E941F0544E060
:10052000842E912CD12CC12C8DA19EA18C159D05C2
:10053000CCF4A6960FB6F894DEBF0FBECDBFDF9108
:10054000CF911F910F91FF90EF90DF90CF90BF90D0
:10055000AF909F908F907F906F905F904F903F9063
:100560002F9008959FEFC91AD90A101611060CF0A2
:100570009BC02DA13EA1215031093EA32DA3C60150
:10058000821B930B880F991F880F991F080F191F43
:10059000065F1F4F17012C0C3D1C3A862986ADA023
:1005A000BEA0A40CB51CBC86AB86472D562D698514
:1005B0007A858B859C850E941F05C7018C199D0932
:1005C0009A8789879AA389A3BCA2ABA2472D562DEF
:1005D00069A17AA18BA19CA10E941F053E8E2D8E40
:1005E00052012DA13EA1A21AB30AB8A2AF8E472D87
:1005F000562D6D8D7E8D8F8D98A10E941F0589854A
:100600009A859A8F898FBC8EAB8E472D562D698D1A
:100610007A8D8B8D9C8D0E941F052DA03EA02E0CE7
:100620003F1C3E822D825201AC0CBD1CB886AF82AD
:10063000472D562D6D817E818F8198850E941F05E3
:1006400097018DA19EA1281B390B3E832D833E8BE4
:100650002D8BB88EAF8A472D562D6D897E898F8957
:10066000988D0E941F053A8A298A5201AC18BD084C
:10067000BC8AAB8A472D562D69897A898B899C89DA
:100680000E941F052D813E813E872D87B88AAF8647
:10069000472D562D6D857E858F8598890E941F0573
:1006A00034E0830E911C40CF080D191D0A5F1F4FC7
:1006B00071CFCF92DF92EF92FF920F931F93CF9360
:1006C000DF93CDB7DEB728970FB6F894DEBF0FBE25
:1006D000CDBF7C01CA018901262F7A836983860FE9
:1006E000971F482F9C838B836E2DFE82ED82F886A8
:1006F000EF823A815C817E818E2D98850E94730401
:1007000028960FB6F894DEBF0FBECDBFDF91CF9114
:100710001F910F91FF90EF90DF90CF900895CF92AF
:10072000DF92EF92FF920F931F93CF93DF93CDB79A
:10073000DEB728970FB6F894DEBF0FBECDBF7C01A1
:10074000CA018901262F7A836983462F7C836B83B4
:100750006E2DFE82ED828E0D9F1D98878F833A81CC
:100760005C817E8198850E94730428960FB6F89468
:10077000DEBF0FBECDBFDF91CF911F910F91FF90D4
:10078000EF90DF90CF9008950F931F93F62FE72FF0
:10079000BC01CA014F2F5E2F0E947C071F910F9151
:1007A00008950C94D5050F931F930E9446051F9141
:1007B0000F9108958FEC97E00197F1F700C00000CA
:1007C00047988FE39CE90197F1F700C00000479A32
:1007D0009FEF2DEE82E0915020408040E1F700C075
:1007E0000000089593E89093B00091E09093B100D9
:1007F0008093B30008959C019093050180930401B8
:1008000086E390E08093004021153105A9F580EF43
:1008100090E0909301018093000180E491E0909337
:1008200003018093020188E490E0809300418AE212
:1008300090E08093004030E020E03093004120932E
:100840000041809100019091010101979093004136
:10085000809300418BE290E0809300403093004110
:1008600020930041809102019091030101979093A0
:1008700000418093004108952130310579F480E4EE
:1008800091E0909301018093000180EF90E09093BC
:1008900003018093020188EE90E0C7CF223031053A
:1008A00079F480EF90E0909301018093000180E45F
:1008B00091E0909303018093020188E890E0B5CF26
:1008C0002330310509F0B3CF80E491E0909301012A
:1008D0008093000180EF90E09093030180930201E8
:1008E00088E290E0A2CF0F931F93CF93DF93CDB711
:1008F000DEB72C970FB6F894DEBF0FBECDBF2983AD
:100900003A834B835C836D837E838F839887A801B2
:1009100069817A812B813C818D819E81AF81B885EF
:10092000EAE2F0E0E0930040709300416093004100
:100930003093004120930041EBE2F0E0E09300406F
:100940009093004180930041B0930041A0930041F7
:10095000ECE2F0E0E09300402F5F3F4F261B370BA7
:100960001196A81BB90B0E941A0869877A878B8792
:100970009C87DC01CB0124E0B695A79597958795D8
:100980002A95D1F79C0189859A858F7099270197BF
:1009900070F42115310581F42C960FB6F894DEBF62
:1009A0000FBECDBFDF91CF911F910F91089550934E
:1009B000004140930041EBCF5093004140930041F0
:1009C00050930041409300415093004140930041B7
:1009D00050930041409300415093004140930041A7
:1009E0005093004140930041509300414093004197
:1009F0005093004140930041509300414093004187
:100A00005093004140930041509300414093004176
:100A10005093004140930041509300414093004166
:100A20005093004140930041509300414093004156
:100A3000509300414093004121503109AACF0F93B8
:100A40001F939C01CA014AE250E04093004070931A
:100A500000416093004170930041609300414BE27C
:100A600050E0409300403093004120930041309388
:100A70000041209300412CE230E02093004090930D
:100A80000041809300411F910F910895CF92DF9212
:100A9000EF92FF920F931F93CF93DF93CDB7DEB703
:100AA00028970FB6F894DEBF0FBECDBF6B017A83D7
:100AB000698361507109640F751F462F7C836B83B6
:100AC000682F9E838D830197820F931F98878F8352
:100AD0002C2D3A815C817E8198850E947304289632
:100AE0000FB6F894DEBF0FBECDBFDF91CF911F913F
:100AF0000F91FF90EF90DF90CF9008950F931F9389
:100B0000CF93DF93CDB7DEB728970FB6F894DEBF4B
:100B10000FBECDBF29833A834B835C836D837E8375
:100B20008F83988789819A814B815C816D817E81D9
:100B3000AF81B8852AE230E02093004090930041D5
:100B40008093004150930041409300412BE230E0FC
:100B5000209300407093004160930041B0930041A6
:100B6000A09300412CE230E0209300404817590741
:100B7000D0F428960FB6F894DEBF0FBECDBFDF913C
:100B8000CF911F910F910895F80101911191109348
:100B90000041009300412F5F3F4F8F01A217B30721
:100BA00098F70196E3CF9B01F9CF0F931F93CF9353
:100BB000DF93CDB7DEB728970FB6F894DEBF0FBE30
:100BC000CDBFE0E0F1E017821682118610861A820E
:100BD0001982808191810197482F9C838B831E828B
:100BE0001D8282819381019798878F830485158563
:100BF00020E03A815C8160E07E8198850E947304E8
:100C000028960FB6F894DEBF0FBECDBFDF91CF910F
:100C10001F910F910895CF92DF92EF92FF920F9361
:100C20001F93CF93DF937C01D62FC72F8A0186E0D5
:100C30008093750080E8809374003F9A249A0E9404
:100C4000DA0388E290E08093004081E190E08093B5
:100C500000402FEF86E791E0215080409040E1F77F
:100C600000C0000081E090E02BEC30E020930040D9
:100C70008093004120EC30E02093004028E036E2F1
:100C8000309300412093004121EC30E040E150E0FE
:100C9000209300404093004125EC30E02093004039
:100CA0002EE335E3309300412093004127EC30E000
:100CB00045EB50E0209300404093004126EF30E0A8
:100CC0002093004080930041D12CC12CD092004150
:100CD000C09200418AE390E025E530E08093004037
:100CE00020930041C7010E94FB030E94D505E0E06C
:100CF000F1E0178216821186108604871587D28745
:100D0000C38789E290E0809300402FE788E391E079
:100D1000215080409040E1F700C0000085E390E062
:100D200080930040C0920041EAE6F0E0808180625A
:100D300080832C9ADF91CF911F910F91FF90EF90BC
:100D4000DF90CF90089550E040E06FEF7FEF90E0AC
:100D500080E00C940B066F927F928F929F92AF92DD
:100D6000BF92CF92DF92EF92FF920F931F93CF9398
:100D7000DF93E82FB62EA72EDA018091080190911B
:100D80000901EA3009F51092070110920601089650
:100D90009093090180930801209102013091030191
:100DA0008217930708F46BC0DF91CF911F910F91C9
:100DB000FF90EF90DF90CF90BF90AF909F908F907B
:100DC0007F906F900C94D505E052EF3508F057C036
:100DD000209106013091070189010C5F1F4FEC0142
:100DE000279645E0E402F0011124E856FF4F4BE25C
:100DF00050E0409300409093004180930041D09395
:100E00000041C09300416AE270E04CE2E42EF12C14
:100E10008A2E7B2E0217130708F040C04AE250E0EA
:100E200040930040309300412093004130930041B3
:100E3000209300412CE230E020930040C817D907EE
:100E400008F054C080910601909107010696909396
:100E50000701809306012091000130910101821762
:100E6000930768F010920701109206018091080123
:100E70009091090108969093090180930801DF91F0
:100E8000CF911F910F91FF90EF90DF90CF90BF9087
:100E9000AF909F908F907F906F90089560930040E7
:100EA0003093004120930041309300412093004152
:100EB000E0920040649031966C0199249394CC1593
:100EC000DD0518F42F5F3F4FA5CF492D462159F47A
:100ED000482D572D50930041409300414FEFC41AC5
:100EE000D40A990CECCF4B2D5A2DF4CFB09300417E
:100EF000A09300410196A2CFDF92EF92FF920F9351
:100F00001F93CF93DF93EC01E22ED32E5093070172
:100F1000409306017093090160930801F12CFE01D2
:100F2000EF0DF11D8081811108C0DF91CF911F91DC
:100F30000F91FF90EF90DF900895A8016E2D7D2D09
:100F40000E94AB06F394EBCFCF93DF9300D000D099
:100F50000F92CDB7DEB7873708F044C0883008F469
:100F600044C08D3308F03FC08F3108F042C080315B
:100F700008F442C022E02D8321EB30E020930040B2
:100F80009D8190930041282F30E050E040E029837C
:100F90003A834B835C83CA01B9010E94CC089B0150
:100FA000AC0160E070E080EF94E40E94290869835E
:100FB0007A838B839C8369817A818B819C810E9457
:100FC0009B0870E00D8002C0759567950A94E2F762
:100FD000609300410F900F900F900F900F90DF9152
:100FE000CF91089586E71D82C7CF88E033E03D8327
:100FF000C3CF41E04D83C0CF53E05D83BDCFE1E679
:10100000F0E080E88083108250E040E06FEF7FEFF7
:1010100083E090E00E944E0100EE17E020EF30E008
:1010200040E451E060E070E0CB010E94D30390E027
:1010300080E00895A29FB001B39FC001A39F700DEF
:10104000811D1124911DB29F700D811D1124911DD0
:1010500008950E943D080C941E090E94170958F03B
:101060000E94100940F029F45F3F29F00C94070911
:1010700051110C9452090C940D090E942F0968F328
:101080009923B1F3552391F3951B550BBB27AA2741
:1010900062177307840738F09F5F5F4F220F331F7B
:1010A000441FAA1FA9F335D00E2E3AF0E0E832D043
:1010B00091505040E695001CCAF72BD0FE2F29D046
:1010C000660F771F881FBB1F261737074807AB0718
:1010D000B0E809F0BB0B802DBF01FF2793585F4F8D
:1010E0003AF09E3F510578F00C9407090C94520990
:1010F0005F3FE4F3983ED4F3869577956795B7956F
:10110000F7959F5FC9F7880F911D9695879597F979
:101110000895E1E0660F771F881FBB1F62177307F2
:101120008407BA0720F0621B730B840BBA0BEE1F07
:1011300088F7E09508950E94370988F09F5798F046
:10114000B92F9927B751B0F0E1F0660F771F881FCC
:10115000991F1AF0BA95C9F714C0B13091F00E94E6
:101160005109B1E008950C945109672F782F882711
:10117000B85F39F0B93FCCF3869577956795B3950D
:10118000D9F73EF490958095709561957F4F8F4F7C
:101190009F4F0895E89409C097FB3EF49095809581
:1011A000709561957F4F8F4F9F4F9923A9F0F92F2D
:1011B00096E9BB279395F695879577956795B795AB
:1011C000F111F8CFFAF4BB0F11F460FF1BC06F5F91
:1011D0007F4F8F4F9F4F16C0882311F096E911C0A3
:1011E000772321F09EE8872F762F05C0662371F0C4
:1011F00096E8862F70E060E02AF09A95660F771FD8
:10120000881FDAF7880F9695879597F9089597F9CB
:101210009F6780E870E060E008959FEF80EC08959C
:1012200000240A94161617061806090608950024C5
:101230000A9412161306140605060895092E03943F
:10124000000C11F4882352F0BB0F40F4BF2B11F4B3
:1012500060FF04C06F5F7F4F8F4F9F4F089557FD12
:101260009058440F551F59F05F3F71F04795880F14
:1012700097FB991F61F09F3F79F0879508951216AB
:1012800013061406551FF2CF4695F1DF08C0161657
:1012900017061806991FF1CF869571056105089408
:1012A0000895E894BB2766277727CB0197F908951F
:0412B000F894FFCFE0
:00000001FF
