:100000000C943A010C9459010C9459010C94590127
:100010000C9459010C9459010C9459010C945901F8
:100020000C9459010C9459010C9459010C945901E8
:100030000C9459010C9459010C9459010C945901D8
:100040000C9459010C9459010C9459010C945901C8
:100050000C9459010C9459010C9459010C945901B8
:100060000C9459010C9459010C9459010C945901A8
:100070000C9459010C9459010C9459010C94590198
:100080000C9459010C9459010C9459010C94590188
:100090000C9459010C945901000000000000005F0D
:1000A00000000003000300143E143E14242A7F2A9B
:1000B000124333086661364955225000050300009B
:1000C000001C2241000041221C0014083E081408B4
:1000D000083E0808005030000008080808080060C2
:1000E00060000020100804023E5149453E00040211
:1000F0007F00426151494622414949361814127F16
:100100001027454545393E494949320101710907E2
:100110003649494936264949493E003636000000ED
:10012000563600000814224100141414141400411F
:1001300022140802015109063E4159555E7E090903
:10014000097E7F494949363E414141227F41414133
:100150003E7F494949417F090909013E4141493AE8
:100160007F0808087F00417F4100304040403F7FCA
:10017000081422417F404040407F020C027F7F02F2
:1001800004087F3E4141413E7F090909061E2121A5
:10019000215E7F09090976264949493201017F011B
:1001A000013F4040403F1F2040201F7F2010207F04
:1001B00041221C224107087008076151494543004C
:1001C0007F41000002040810200000417F0004026B
:1001D0000102044040404040000102040020545409
:1001E00054787F4444443838444444443844444474
:1001F0007F385454541804047E0505085454543C64
:100200007F0804047800447D40002040443D007F86
:100210001028440000417F40007C047804787C086A
:1002200004047838444444387C1414140808141422
:10023000147C007C080404485454542004043F44B3
:10024000443C4040207C1C2040201C3C4030403C32
:1002500044281028440C5050503C4464544C4400F2
:100260000836414100007F0000414136080002018C
:100270000204020011241FBECFEFD0E2DEBFCDBFCB
:1002800011E0A0E0B1E0E0EDF1E100E00BBF02C061
:1002900007900D92A430B107D9F721E0A4E0B1E0B6
:1002A00001C01D92A231B207E1F70E9482070C94AF
:1002B000E6080C9400008FEC97E00197F1F700C07E
:1002C000000047988FE39CE90197F1F700C0000018
:1002D000479A9FEF2DEE82E0915020408040E1F759
:1002E00000C00000089593E89093B00091E09093CF
:1002F000B1008093B30008959C019093090180930D
:10030000080186E390E08093004021153105A9F5AE
:1003100080EF90E0909305018093040180E491E0E8
:10032000909307018093060188E490E08093004158
:100330008AE290E08093004030E020E0309300417A
:1003400020930041809104019091050101979093C1
:100350000041809300418BE290E080930040309315
:10036000004120930041809106019091070101977F
:10037000909300418093004108952130310579F434
:1003800080E491E0909305018093040180EF90E078
:10039000909307018093060188EE90E0C7CF22304A
:1003A000310579F480EF90E090930501809304018A
:1003B00080E491E0909307018093060188E890E043
:1003C000B5CF2330310509F0B3CF80E491E09093AD
:1003D00005018093040180EF90E0909307018093E2
:1003E000060188E290E0A2CF0F931F93CF93DF9393
:1003F000CDB7DEB728970FB6F894DEBF0FBECDBFDE
:1004000029833A834B835C836D837E838F839887B4
:10041000A801E981FA812B813C816D817E818F81E8
:100420009885AAE2B0E0A0930040F0930041E093E9
:1004300000413093004120930041ABE2B0E0A09333
:10044000004070930041609300419093004180937D
:100450000041ACE2B0E0A09300402F5F3F4F2E1B65
:100460003F0B0196861B970B28173907F8F4FC0100
:10047000E770FF27E29FB001E39F700DF29F700DC0
:100480001124F3E096958795FA95E1F7289FF001FE
:10049000299FF00D389FF00D1124962F97709150E1
:1004A000A8F05093004140930041F9CFF901E77063
:1004B000FF27E89FB001E99F700DF89F700D112490
:1004C000E3E036952795EA95E1F7E0CFCB0123E00D
:1004D000969587952A95E1F78E0F9F1F009711F14A
:1004E000509300414093004150930041409300419C
:1004F000509300414093004150930041409300418C
:10050000509300414093004150930041409300417B
:10051000509300414093004150930041409300416B
:100520000197DCCF28960FB6F894DEBF0FBECDBF83
:10053000DF91CF911F910F9108950F931F939C010D
:10054000CA014AE250E0409300407093004160933A
:10055000004170930041609300414BE250E04093B2
:10056000004030930041209300413093004120939C
:1005700000412CE230E020930040909300418093B2
:1005800000411F910F910895CF92DF92EF92FF9259
:100590000F931F93CF93DF93CDB7DEB728970FB696
:1005A000F894DEBF0FBECDBF6B017A8369836150C3
:1005B0007109640F751F462F7C836B83682F9E83A0
:1005C0008D830197820F931F98878F832C2D3A81FB
:1005D0005C817E8198850E94F40128960FB6F8947C
:1005E000DEBF0FBECDBFDF91CF911F910F91FF9066
:1005F000EF90DF90CF9008950F931F93CF93DF93E9
:10060000CDB7DEB728970FB6F894DEBF0FBECDBFCB
:1006100029833A834B835C836D837E838F839887A2
:1006200089819A814B815C816D817E81AF81B885A2
:100630002AE230E0209300409093004180930041F3
:1006400050930041409300412BE230E02093004062
:100650007093004160930041B0930041A09300412A
:100660002CE230E0209300404817590788F09B01A6
:10067000A217B30758F0F8010191119110930041AE
:10068000009300412F5F3F4F8F01F2CF0196ECCFD7
:1006900028960FB6F894DEBF0FBECDBFDF91CF9185
:1006A0001F910F9108950F931F93CF93DF93CDB7B1
:1006B000DEB728970FB6F894DEBF0FBECDBFE4E0DB
:1006C000F1E0178216821186108686E09E012F5F68
:1006D0003F4FD9011D928A95E9F780819181019759
:1006E000482F9C838B8382819381019798878F8386
:1006F0000485158529813A815C816D817E8198858B
:100700000E94F40128960FB6F894DEBF0FBECDBF4D
:10071000DF91CF911F910F910895CF93DF9386E0E2
:100720008093750080E8809374003F9A249A0E9419
:100730005B0188E290E08093004081E190E080934B
:1007400000402FEF86E791E0215080409040E1F794
:1007500000C0000081E090E02BEC30E020930040EE
:100760008093004120EC30E02093004028E036E206
:10077000309300412093004121EC30E040E150E013
:10078000209300404093004125EC30E0209300404E
:100790002EE335E3309300412093004127EC30E015
:1007A00045EB50E0209300404093004126EF30E0BD
:1007B0002093004080930041D0E0C0E0D0930041FE
:1007C000C09300418AE390E025E530E0809300404B
:1007D0002093004190E080E00E947C010E9453033E
:1007E000E4E0F1E0178216821186108615861486E1
:1007F0008FEF9FEF9387828789E290E0809300409C
:100800002FE788E391E0215080409040E1F700C05D
:10081000000085E390E080930040C0930041EAE649
:10082000F0E08081806280832C9ADF91CF910895DF
:10083000CF92DF92EF92FF920F931F93CF93DF93AC
:100840007C01D62FC72F8A0186E08093750080E84F
:10085000809374003F9A249A0E945B0188E290E0A2
:100860008093004081E190E0809300402FEF86E785
:1008700091E0215080409040E1F700C0000081E00D
:1008800090E02BEC30E0209300408093004120EC7E
:1008900030E02093004028E036E23093004120937E
:1008A000004121EC30E040E150E0209300404093D3
:1008B000004125EC30E0209300402EE335E33093F7
:1008C00000412093004127EC30E045EB50E02093BD
:1008D00000404093004126EF30E020930040809399
:1008E0000041D12CC12CD0920041C09200418AE33A
:1008F00090E025E530E08093004020930041C7015F
:100900000E947C010E945303E4E0F1E0178216820A
:100910001186108604871587D287C38789E290E005
:10092000809300402FE788E391E021508040904081
:10093000E1F700C0000085E390E080930040C092A2
:100940000041EAE6F0E08081806280832C9ADF91AA
:10095000CF911F910F91FF90EF90DF90CF9008956E
:100960006F927F928F929F92AF92BF92CF92DF92BF
:10097000EF92FF920F931F93CF93DF93E82FB62E42
:10098000A72EDA0180910C0190910D01EA3009F552
:1009900010920B0110920A01089690930D0180931A
:1009A0000C0120910601309107018217930708F48A
:1009B00097C0DF91CF911F910F91FF90EF90DF9043
:1009C000CF90BF90AF909F908F907F906F900C943E
:1009D0005303E052EF3508F083C020910A013091B3
:1009E0000B0189010C5F1F4FEC01279645E0E402E3
:1009F000F0011124E856FF4F4BE250E040930040D5
:100A00009093004180930041D0930041C0930041F6
:100A10006AE270E04CE2E42EF12C8A2E7B2E021763
:100A2000130740F160930040309300412093004150
:100A30003093004120930041E09200406490319651
:100A40006C0199249394CC15DD0588F0492D46213D
:100A500059F4482D572D50930041409300414FEFDA
:100A6000C41AD40A990CEFCF4B2D5A2DF4CF2F5F17
:100A70003F4FD5CF4AE250E04093004030930041D1
:100A80002093004130930041209300412CE230E05C
:100A900020930040C817D90730F0B0930041A093CD
:100AA00000410196F7CF80910A0190910B010696C3
:100AB00090930B0180930A0120910401309105016C
:100AC0008217930768F010920B0110920A0180912F
:100AD0000C0190910D01089690930D0180930C01EB
:100AE000DF91CF911F910F91FF90EF90DF90CF900A
:100AF000BF90AF909F908F907F906F900895CF920E
:100B0000DF92FF920F931F93CF93DF936C01F22E2E
:100B1000D32F50930B0140930A0170930D01609302
:100B20000C01C0E0F601EC0FF11D8081882339F043
:100B3000A8016F2D7D2F0E94B004CF5FF3CFDF910E
:100B4000CF911F910F91FF90DF90CF900895CF9399
:100B5000DF9300D000D00F92CDB7DEB7873708F013
:100B600044C0883008F444C08D3308F03FC08F3152
:100B700008F042C0803108F442C022E02D8321EB0E
:100B800030E0209300409D8190930041282F30E079
:100B900050E040E029833A834B835C83CA01B9016A
:100BA0000E945A089B01AC0160E070E080EF94E481
:100BB0000E94B70769837A838B839C8369817A81DA
:100BC0008B819C810E94290870E00D8002C0759580
:100BD00067950A94E2F7609300410F900F900F9091
:100BE0000F900F90DF91CF91089586E71D82C7CFB8
:100BF00088E033E03D83C3CF41E04D83C0CF53E075
:100C00005D83BDCF0C9418048F929F92AF92BF92D8
:100C1000CF92DF92EF92FF920F931F93CF93DF93C8
:100C2000CDB7DEB72A970FB6F894DEBF0FBECDBFA3
:100C30006D837E838F83988749875A8749011D2D4D
:100C4000A02EB12C89859A852817390708F4C90187
:100C5000A816B906E8F08701940149855A856D8187
:100C60007E818F8198850E94C4022A960FB6F894DF
:100C7000DEBF0FBECDBFDF91CF911F910F91FF90CF
:100C8000EF90DF90CF90BF90AF909F908F9008959E
:100C90002D813E813A8329838F8198859C838B8324
:100CA0000C2D940149855A8569817A818B819C81BB
:100CB0000E94C4022D813E813A8329838F819885C9
:100CC0009C838B838701950149855A8569817A8147
:100CD0008B819C810E94C4022D813E813A832983AD
:100CE0008F819885880D991D9C012A193B093C83A9
:100CF0002B83950149855A8569817A818B819C81F5
:100D00000E94C4028D819E819A8389832F813885B8
:100D10003C832B839401A50169817A818B819C811D
:100D20000E94C40289859A852D813E81820F931F7E
:100D30008A199B099A8389838F8198859C838B83E9
:100D40009401A50169817A818B819C818CCF2F923E
:100D50003F924F925F926F927F928F929F92AF924B
:100D6000BF92CF92DF92EF92FF920F931F93CF9398
:100D7000DF93CDB7DEB72A970FB6F894DEBF0FBE6C
:100D8000CDBF4B015C0149875A8729011B013C01FA
:100D900001E010E089859A85081B190B7C01F1940C
:100DA000E194F108EE0CFF1C7A8369839C012A0D03
:100DB0003B1D3C832B83A20169817A818B819C81BD
:100DC0000E949D029A828982C50129853A85821BEB
:100DD000930B9C838B83A20169817A818B819C8197
:100DE0000E949D0289859A85880D991D9A83898321
:100DF000BC82AB82A20169817A818B819C810E9435
:100E00009D02C40129853A85821B930B9A838983AD
:100E1000BC82AB82A20169817A818B819C810E9414
:100E20009D023FEF89E698E1315080409040E1F724
:100E300000C00000D12CC12C88248394912C2985DA
:100E40003A85C216D3067CF517FD09C02150310939
:100E50003A87298732E0E30EF11C0E0D1F1D8FEF3C
:100E6000C81AD80A92E0890E911C080D191D960126
:100E7000220D331D3E832D8389859A85860D971D0E
:100E800098878F83A2016D817E818F8198850E94D2
:100E90009D029FEF20E732E0915020403040E1F783
:100EA00000C00000CCCF2A960FB6F894DEBF0FBE6C
:100EB000CDBFDF91CF911F910F91FF90EF90DF9009
:100EC000CF90BF90AF909F908F907F906F905F90EA
:100ED0004F903F902F9008950F931F93F62FE72F79
:100EE000BC01CA014F2F5E2F0E947F051F910F91F9
:100EF00008950C9453030F931F930E94C4021F91F3
:100F00000F91089500D000D0CDB7DEB7E1E6F0E054
:100F100080E88083108250E040E06FEF7FEF81E057
:100F200090E00E940206E4E0F1E0228133814081FA
:100F300051810FEF1FEF60E070E0CB010E947B0753
:100F40008091000190910101A0910201B0910301F3
:100F500030E020E048E750E0BC01CD010E94A70648
:100F600090E080E00F900F900F900F9008950E94F6
:100F7000CB070C94AC080E94A50858F00E949E086C
:100F800040F029F45F3F29F00C94950851110C941E
:100F9000E0080C949B080E94BD0868F39923B1F304
:100FA000552391F3951B550BBB27AA27621773078F
:100FB000840738F09F5F5F4F220F331F441FAA1F23
:100FC000A9F335D00E2E3AF0E0E832D091505040DF
:100FD000E695001CCAF72BD0FE2F29D0660F771F8D
:100FE000881FBB1F261737074807AB07B0E809F073
:100FF000BB0B802DBF01FF2793585F4F3AF09E3FF8
:10100000510578F00C9495080C94E0085F3FE4F3E8
:10101000983ED4F3869577956795B795F7959F5F3A
:10102000C9F7880F911D9695879597F90895E1E086
:10103000660F771F881FBB1F621773078407BA07E5
:1010400020F0621B730B840BBA0BEE1F88F7E09540
:1010500008950E94C50888F09F5798F0B92F9927E6
:10106000B751B0F0E1F0660F771F881F991F1AF093
:10107000BA95C9F714C0B13091F00E94DF08B1E011
:1010800008950C94DF08672F782F8827B85F39F010
:10109000B93FCCF3869577956795B395D9F73EF42C
:1010A00090958095709561957F4F8F4F9F4F0895D4
:1010B000E89409C097FB3EF49095809570956195F2
:1010C0007F4F8F4F9F4F9923A9F0F92F96E9BB27A8
:1010D0009395F695879577956795B795F111F8CF24
:1010E000FAF4BB0F11F460FF1BC06F5F7F4F8F4F8F
:1010F0009F4F16C0882311F096E911C0772321F085
:101100009EE8872F762F05C0662371F096E8862F1C
:1011100070E060E02AF09A95660F771F881FDAF773
:10112000880F9695879597F9089597F99F6780E8B6
:1011300070E060E008959FEF80EC089500240A9429
:101140001616170618060906089500240A941216A2
:101150001306140605060895092E0394000C11F4D5
:10116000882352F0BB0F40F4BF2B11F460FF04C082
:101170006F5F7F4F8F4F9F4F089557FD9058440FDB
:10118000551F59F05F3F71F04795880F97FB991FE6
:1011900061F09F3F79F087950895121613061406A3
:1011A000551FF2CF4695F1DF08C016161706180630
:1011B000991FF1CF86957105610508940895E8940B
:1011C000BB2766277727CB0197F90895F894FFCFBF
:0411D000A000780003
:00000001FF
