:100000000C943A010C944C010C944C010C944C014E
:100010000C944C010C944C010C944C010C944C012C
:100020000C944C010C944C010C944C010C944C011C
:100030000C944C010C944C010C944C010C944C010C
:100040000C944C010C944C010C944C010C944C01FC
:100050000C944C010C944C010C944C010C944C01EC
:100060000C944C010C944C010C944C010C944C01DC
:100070000C944C010C944C010C944C010C944C01CC
:100080000C944C010C944C010C944C010C944C01BC
:100090000C944C010C944C01000000000000005F27
:1000A00000000003000300143E143E14242A7F2A9B
:1000B000124333086661364955225000050300009B
:1000C000001C2241000041221C0014083E081408B4
:1000D000083E0808005030000008080808080060C2
:1000E00060000020100804023E5149453E00040211
:1000F0007F00426151494622414949361814127F16
:100100001027454545393E494949320101710907E2
:100110003649494936264949493E003636000000ED
:10012000563600000814224100141414141400411F
:1001300022140802015109063E4159555E7E090903
:10014000097E7F494949363E414141227F41414133
:100150003E7F494949417F090909013E4141493AE8
:100160007F0808087F00417F4100304040403F7FCA
:10017000081422417F404040407F020C027F7F02F2
:1001800004087F3E4141413E7F090909061E2121A5
:10019000215E7F09090976264949493201017F011B
:1001A000013F4040403F1F2040201F7F2010207F04
:1001B00041221C224107087008076151494543004C
:1001C0007F41000002040810200000417F0004026B
:1001D0000102044040404040000102040020545409
:1001E00054787F4444443838444444443844444474
:1001F0007F385454541804047E0505085454543C64
:100200007F0804047800447D40002040443D007F86
:100210001028440000417F40007C047804787C086A
:1002200004047838444444387C1414140808141422
:10023000147C007C080404485454542004043F44B3
:10024000443C4040207C1C2040201C3C4030403C32
:1002500044281028440C5050503C4464544C4400F2
:100260000836414100007F0000414136080002018C
:100270000204020011241FBECFEFD0E2DEBFCDBFCB
:1002800021E0A0E0B1E001C01D92A031B207E1F78A
:100290000E94F2070C9492090C9400008FEC97E0F6
:1002A0000197F1F700C0000047988FE39CE90197A0
:1002B000F1F700C00000479A9FEF2DEE82E09150C9
:1002C00020408040E1F700C00000089593E890933B
:1002D000B00091E09093B1008093B30008959C0129
:1002E000909305018093040186E390E080930040A1
:1002F00021153105A9F580EF90E0909301018093DD
:10030000000180E491E0909303018093020188E46E
:1003100090E0809300418AE290E08093004030E0DA
:1003200020E03093004120930041809100019091A2
:100330000101019790930041809300418BE290E08E
:10034000809300403093004120930041809102014E
:10035000909103010197909300418093004108958B
:100360002130310579F480E491E09093010180938C
:10037000000180EF90E0909303018093020188EEEA
:1003800090E0C7CF2230310579F480EF90E0909370
:1003900001018093000180E491E090930301809338
:1003A000020188E890E0B5CF2330310509F0B3CFE2
:1003B00080E491E0909301018093000180EF90E050
:1003C000909303018093020188E290E0A2CF0F9303
:1003D0001F93CF93DF93CDB7DEB72C970FB6F8946A
:1003E000DEBF0FBECDBF29833A834B835C836D8311
:1003F0007E838F839887A80169817A812B813C81D4
:100400008D819E81AF81B885EAE2F0E0E093004003
:10041000709300416093004130930041209300416C
:10042000EBE2F0E0E09300409093004180930041C4
:10043000B0930041A0930041ECE2F0E0E093004073
:100440002F5F3F4F261B370B1196A81BB90B0E943D
:10045000540869877A878B879C87DC01CB0124E06D
:10046000B695A795979587952A95D1F79C0189858B
:100470009A858F709927019728F0509300414093F7
:100480000041F9CF2115310509F443C050930041D3
:1004900040930041509300414093004150930041EC
:1004A00040930041509300414093004150930041DC
:1004B00040930041509300414093004150930041CC
:1004C00040930041509300414093004150930041BC
:1004D00040930041509300414093004150930041AC
:1004E000409300415093004140930041509300419C
:1004F000409300415093004140930041509300418C
:1005000040930041509300414093004121503109F4
:10051000B9CF2C960FB6F894DEBF0FBECDBFDF91DA
:10052000CF911F910F9108950F931F939C01CA01C2
:100530004AE250E0409300407093004160930041D4
:1005400070930041609300414BE250E040930040C3
:1005500030930041209300413093004120930041AB
:100560002CE230E0209300409093004180930041C2
:100570001F910F910895CF92DF92EF92FF920F9308
:100580001F93CF93DF93CDB7DEB728970FB6F894BC
:10059000DEBF0FBECDBF6B017A83698361507109E5
:1005A000640F751F462F7C836B83682F9E838D831A
:1005B0000197820F931F98878F832C2D3A815C813E
:1005C0007E8198850E94E70128960FB6F894DEBFD9
:1005D0000FBECDBFDF91CF911F910F91FF90EF9094
:1005E000DF90CF9008950F931F93CF93DF93CDB7F4
:1005F000DEB728970FB6F894DEBF0FBECDBF2983B4
:100600003A834B835C836D837E838F839887898154
:100610009A814B815C816D817E81AF81B8852AE2B0
:1006200030E020930040909300418093004150932C
:100630000041409300412BE230E020930040709352
:10064000004160930041B0930041A09300412CE22F
:1006500030E0209300404817590788F09B01A2170B
:10066000B30758F0F80101911191109300410093E4
:1006700000412F5F3F4F8F01F2CF0196ECCF2896BC
:100680000FB6F894DEBF0FBECDBFDF91CF911F91A3
:100690000F9108950F931F93CF93DF93CDB7DEB7DC
:1006A00028970FB6F894DEBF0FBECDBFE0E0F1E0B3
:1006B000178216821186108686E09E012F5F3F4FBB
:1006C000D9011D928A95E9F7808191810197482F80
:1006D0009C838B8382819381019798878F83048584
:1006E000158529813A815C816D817E8198850E9482
:1006F000E70128960FB6F894DEBF0FBECDBFDF919D
:10070000CF911F910F910895CF92DF92EF92FF92B8
:100710000F931F93CF93DF937C01D62FC72F8A01AE
:1007200086E08093750080E8809374003F9A249A55
:100730000E944E0188E290E08093004081E190E0C9
:10074000809300402FEF86E791E021508040904059
:10075000E1F700C0000081E090E02BEC30E0209356
:1007600000408093004120EC30E02093004028E0DE
:1007700036E2309300412093004121EC30E040E12B
:1007800050E0209300404093004125EC30E020935E
:1007900000402EE335E3309300412093004127ECE5
:1007A00030E045EB50E0209300404093004126EFBD
:1007B00030E02093004080930041D12CC12CD09296
:1007C0000041C09200418AE390E025E530E080934B
:1007D000004020930041C7010E946F010E944A031C
:1007E000E0E0F1E0178216821186108604871587F3
:1007F000D287C38789E290E0809300402FE788E3A7
:1008000091E0215080409040E1F700C0000085E376
:1008100090E080930040C0920041EAE6F0E08081E1
:10082000806280832C9ADF91CF911F910F91FF906E
:10083000EF90DF90CF90089550E040E06FEF7FEFB2
:1008400090E080E00C9484036F927F928F929F924D
:10085000AF92BF92CF92DF92EF92FF920F931F93CE
:10086000CF93DF93E82FB62EA72EDA0180910801EF
:1008700090910901EA3009F51092070110920601E2
:10088000089690930901809308012091020130910C
:1008900003018217930708F497C0DF91CF911F914E
:1008A0000F91FF90EF90DF90CF90BF90AF909F900F
:1008B0008F907F906F900C944A03E052EF3508F0D0
:1008C00083C0209106013091070189010C5F1F4F01
:1008D000EC01279645E0E402F0011124E856FF4FB1
:1008E0004BE250E0409300409093004180930041E0
:1008F000D0930041C09300416AE270E04CE2E42EE4
:10090000F12C8A2E7B2E0217130740F160930040D2
:1009100030930041209300413093004120930041E7
:10092000E0920040649031966C0199249394CC1528
:10093000DD0588F0492D462159F4482D572D509357
:100940000041409300414FEFC41AD40A990CEFCFF5
:100950004B2D5A2DF4CF2F5F3F4FD5CF4AE250E0B9
:100960004093004030930041209300413093004178
:10097000209300412CE230E020930040C817D907B3
:1009800030F0B0930041A09300410196F7CF8091E1
:100990000601909107010696909307018093060146
:1009A00020910001309101018217930768F01092A5
:1009B00007011092060180910801909109010896A3
:1009C0009093090180930801DF91CF911F910F91BE
:1009D000FF90EF90DF90CF90BF90AF909F908F905F
:1009E0007F906F900895CF92DF92FF920F931F93A5
:1009F000CF93DF936C01F22ED32F509307014093D6
:100A000006017093090160930801C0E0F601EC0F44
:100A1000F11D8081882339F0A8016F2D7D2F0E9460
:100A20002404CF5FF3CFDF91CF911F910F91FF90FF
:100A3000DF90CF900895CF93DF9300D000D00F9236
:100A4000CDB7DEB7873708F044C0883008F444C01B
:100A50008D3308F03FC08F3108F042C0803108F478
:100A600042C022E02D8321EB30E0209300409D81A5
:100A700090930041282F30E050E040E029833A83F2
:100A80004B835C83CA01B9010E9406099B01AC013A
:100A900060E070E080EF94E40E94630869837A83E9
:100AA0008B839C8369817A818B819C810E94D5088C
:100AB00070E00D8002C0759567950A94E2F7609327
:100AC00000410F900F900F900F900F90DF91CF91FA
:100AD000089586E71D82C7CF88E033E03D83C3CF0A
:100AE00041E04D83C0CF53E05D83BDCF0C948403C0
:100AF0008F929F92AF92BF92CF92DF92EF92FF922E
:100B00000F931F93CF93DF93CDB7DEB72A970FB61E
:100B1000F894DEBF0FBECDBF6D837E838F83988731
:100B200049875A8749011D2DA02EB12C89859A85A8
:100B30002817390708F4C901A816B906E8F0870193
:100B4000940149855A856D817E818F8198850E94A7
:100B5000BB022A960FB6F894DEBF0FBECDBFDF9161
:100B6000CF911F910F91FF90EF90DF90CF90BF90AA
:100B7000AF909F908F9008952D813E813A83298375
:100B80008F8198859C838B830C2D940149855A8590
:100B900069817A818B819C810E94BB022D813E817B
:100BA0003A8329838F8198859C838B838701950164
:100BB00049855A8569817A818B819C810E94BB021B
:100BC0002D813E813A8329838F819885880D991DD7
:100BD0009C012A193B093C832B83950149855A8541
:100BE00069817A818B819C810E94BB028D819E816B
:100BF0009A8389832F8138853C832B839401A501B7
:100C000069817A818B819C810E94BB0289859A854A
:100C10002D813E81820F931F8A199B099A838983B4
:100C20008F8198859C838B839401A50169817A814A
:100C30008B819C818CCF2F923F924F925F926F92CB
:100C40007F928F929F92AF92BF92CF92DF92EF925C
:100C5000FF920F931F93CF93DF93CDB7DEB7A69785
:100C60000FB6F894DEBF0FBECDBF4B015C012EA3C3
:100C70003DA33B012C018A01CA01880F991F23E083
:100C800030E07901E81AF90A7A8369836A01CA0CAB
:100C9000DB1CDC82CB824EA15DA169817A818B81D4
:100CA0009C810E9494029A828982DC82CB824EA12E
:100CB0005DA169817A818B819C810E9494029A82D4
:100CC00089826501C01AD10ADC82CB824EA15DA166
:100CD00069817A818B819C810E9494029A828982A7
:100CE000DC82CB824EA15DA169817A818B819C815E
:100CF0000E9494021801280C391C3A822982BC8275
:100D0000AB824EA15DA169817A818B819C810E9419
:100D100094026401C01AD10ADA82C982BC82AB8211
:100D20004EA15DA169817A818B819C810E94940290
:100D30003A822982BC82AB824EA15DA169817A810F
:100D40008B819C810E949402DA82C982BC82AB8230
:100D50004EA15DA169817A818B819C810E94940260
:100D600044E0242E312CD12CC12C0C151D050CF483
:100D70009FC08FEFC81AD80A1E141F040CF092C02F
:100D800001501109C601801B910B880F991F880F14
:100D9000991FE80EF91E9AE0E90EF11C5301AC0C04
:100DA000BD1CBAA2A9A24201800E911E9CA28BA2D8
:100DB0004EA15DA169A17AA18BA19CA10E94940280
:100DC000C3018C199D099A8389839E8F8D8F98A268
:100DD0008F8E4EA15DA16D8D7E8D8F8D98A10E940D
:100DE0009402BA8EA98E5201A01AB10ABC8EAB8EA3
:100DF0004EA15DA1698D7A8D8B8D9C8D0E94940290
:100E000089819A819E8B8D8BB88EAF8A4EA15DA110
:100E10006D897E898F89988D0E9494025801A60C55
:100E2000B71CBA8AA98A42018C0C9D1C9C8A8B8AA9
:100E30004EA15DA169897A898B899C890E9494025F
:100E4000C301801B910B9A8389839E878D87988A23
:100E50008F864EA15DA16D857E858F8598890E94C4
:100E60009402BA86A9865201AC18BD08BC86AB862E
:100E70004EA15DA169857A858B859C850E9494022F
:100E800089819A819E838D83B886AF824EA15DA1B0
:100E90006D817E818F8198850E94940294E0290E55
:100EA000311C63CFE20CF31C86E0E80EF11C76CF18
:100EB000A6960FB6F894DEBF0FBECDBFDF91CF91DF
:100EC0001F910F91FF90EF90DF90CF90BF90AF9068
:100ED0009F908F907F906F905F904F903F902F905A
:100EE0000895CF92DF92EF92FF920F931F93CF93CB
:100EF000DF93CDB7DEB728970FB6F894DEBF0FBEED
:100F0000CDBF7C01CA018901262F7A836983860FB0
:100F1000971F482F9C838B836E2DFE82ED82F8866F
:100F2000EF823A815C817E818E2D98850E94E70157
:100F300028960FB6F894DEBF0FBECDBFDF91CF91DC
:100F40001F910F91FF90EF90DF90CF900895CF9277
:100F5000DF92EF92FF920F931F93CF93DF93CDB762
:100F6000DEB728970FB6F894DEBF0FBECDBF7C0169
:100F7000CA018901262F7A836983462F7C836B837C
:100F80006E2DFE82ED828E0D9F1D98878F833A8194
:100F90005C817E8198850E94E70128960FB6F894BF
:100FA000DEBF0FBECDBFDF91CF911F910F91FF909C
:100FB000EF90DF90CF9008950F931F93F62FE72FB8
:100FC000BC01CA014F2F5E2F0E94F3041F910F91A5
:100FD00008950C944A030F931F930E94BB021F9124
:100FE0000F910895CDB7DEB72E970FB6F894DEBFF8
:100FF0000FBECDBF80E8809361001092610050E089
:1010000040E06FEF7FEF81E090E00E9476051E8662
:101010001D868D859E859E838D8388E790E09887C9
:101020008F8310E000E025E030E045E050E06D8186
:101030007E818F8198850E94EB078D859E85019624
:101040009E878D879A83898388E790E09C838B8332
:101050000FEF1FEF25E030E045E050E069817A8135
:101060008B819C810E94EB078FE99FE00197F1F74C
:1010700000C000008D859E858034914051F680E44B
:1010800091E09A87898788E790E09C878B8710E0BA
:1010900000E025E030E045E050E069857A858B8509
:1010A0009C850E94EB07B3CFA29FB001B39FC00104
:1010B000A39F700D811D1124911DB29F700D811D84
:1010C0001124911D08950E9477080C9458090E94DC
:1010D000510958F00E944A0940F029F45F3F29F075
:1010E0000C94410951110C948C090C9447090E94ED
:1010F000690968F39923B1F3552391F3951B550BB7
:10110000BB27AA2762177307840738F09F5F5F4FDA
:10111000220F331F441FAA1FA9F335D00E2E3AF019
:10112000E0E832D091505040E695001CCAF72BD031
:10113000FE2F29D0660F771F881FBB1F2617370782
:101140004807AB07B0E809F0BB0B802DBF01FF27B4
:1011500093585F4F3AF09E3F510578F00C94410947
:101160000C948C095F3FE4F3983ED4F38695779511
:101170006795B795F7959F5FC9F7880F911D96956D
:10118000879597F90895E1E0660F771F881FBB1FC9
:10119000621773078407BA0720F0621B730B840B76
:1011A000BA0BEE1F88F7E09508950E94710988F048
:1011B0009F5798F0B92F9927B751B0F0E1F0660F1B
:1011C000771F881F991F1AF0BA95C9F714C0B1305C
:1011D00091F00E948B09B1E008950C948B09672F60
:1011E000782F8827B85F39F0B93FCCF3869577958B
:1011F0006795B395D9F73EF4909580957095619574
:101200007F4F8F4F9F4F0895E89409C097FB3EF49E
:1012100090958095709561957F4F8F4F9F4F992343
:10122000A9F0F92F96E9BB279395F69587957795C1
:101230006795B795F111F8CFFAF4BB0F11F460FF81
:101240001BC06F5F7F4F8F4F9F4F16C0882311F0D9
:1012500096E911C0772321F09EE8872F762F05C0ED
:10126000662371F096E8862F70E060E02AF09A9588
:10127000660F771F881FDAF7880F9695879597F97D
:10128000089597F99F6780E870E060E008959FEF08
:1012900080EC089500240A9416161706180609060D
:1012A000089500240A9412161306140605060895DC
:1012B000092E0394000C11F4882352F0BB0F40F464
:1012C000BF2B11F460FF04C06F5F7F4F8F4F9F4FA4
:1012D000089557FD9058440F551F59F05F3F71F026
:1012E0004795880F97FB991F61F09F3F79F087958D
:1012F0000895121613061406551FF2CF4695F1DF16
:1013000008C0161617061806991FF1CF86957105A5
:10131000610508940895E894BB2766277727CB01D9
:0813200097F90895F894FFCF3E
:00000001FF
