:100000000C943A010C9459010C9459010C94590127
:100010000C9459010C9459010C9459010C945901F8
:100020000C9459010C9459010C9459010C945901E8
:100030000C9459010C9459010C9459010C945901D8
:100040000C9459010C9459010C9459010C945901C8
:100050000C9459010C9459010C9459010C945901B8
:100060000C9459010C9459010C9459010C945901A8
:100070000C9459010C9459010C9459010C94590198
:100080000C9459010C9459010C9459010C94590188
:100090000C9459010C945901000000000000005F0D
:1000A00000000003000300143E143E14242A7F2A9B
:1000B000124333086661364955225000050300009B
:1000C000001C2241000041221C0014083E081408B4
:1000D000083E0808005030000008080808080060C2
:1000E00060000020100804023E5149453E00040211
:1000F0007F00426151494622414949361814127F16
:100100001027454545393E494949320101710907E2
:100110003649494936264949493E003636000000ED
:10012000563600000814224100141414141400411F
:1001300022140802015109063E4159555E7E090903
:10014000097E7F494949363E414141227F41414133
:100150003E7F494949417F090909013E4141493AE8
:100160007F0808087F00417F4100304040403F7FCA
:10017000081422417F404040407F020C027F7F02F2
:1001800004087F3E4141413E7F090909061E2121A5
:10019000215E7F09090976264949493201017F011B
:1001A000013F4040403F1F2040201F7F2010207F04
:1001B00041221C224107087008076151494543004C
:1001C0007F41000002040810200000417F0004026B
:1001D0000102044040404040000102040020545409
:1001E00054787F4444443838444444443844444474
:1001F0007F385454541804047E0505085454543C64
:100200007F0804047800447D40002040443D007F86
:100210001028440000417F40007C047804787C086A
:1002200004047838444444387C1414140808141422
:10023000147C007C080404485454542004043F44B3
:10024000443C4040207C1C2040201C3C4030403C32
:1002500044281028440C5050503C4464544C4400F2
:100260000836414100007F0000414136080002018C
:100270000204020011241FBECFEFD0E2DEBFCDBFCB
:1002800011E0A0E0B1E0EEE4F9E100E00BBF02C054
:1002900007900D92A630B107D9F721E0A6E0B1E0B2
:1002A00001C01D92A631B207E1F70E9461080C94CB
:1002B000A50C0C9400008FEC97E00197F1F700C0BB
:1002C000000047988FE39CE90197F1F700C0000018
:1002D000479A9FEF2DEE82E0915020408040E1F759
:1002E00000C00000089593E89093B00091E09093CF
:1002F000B1008093B30008959C0190930B0180930B
:100300000A0186E390E08093004021153105A9F5AC
:1003100080EF90E0909307018093060180E491E0E4
:10032000909309018093080188E490E08093004154
:100330008AE290E08093004030E020E0309300417A
:1003400020930041809106019091070101979093BD
:100350000041809300418BE290E080930040309315
:10036000004120930041809108019091090101977B
:10037000909300418093004108952130310579F434
:1003800080E491E0909307018093060180EF90E074
:10039000909309018093080188EE90E0C7CF223046
:1003A000310579F480EF90E0909307018093060186
:1003B00080E491E0909309018093080188E890E03F
:1003C000B5CF2330310509F0B3CF80E491E09093AD
:1003D00007018093060180EF90E0909309018093DC
:1003E000080188E290E0A2CF0F931F93CF93DF9391
:1003F000CDB7DEB72C970FB6F894DEBF0FBECDBFDA
:1004000029833A834B835C836D837E838F839887B4
:10041000A80169817A812B813C818D819E81AF8188
:10042000B885EAE2F0E0E093004070930041609309
:1004300000413093004120930041EBE2F0E0E09373
:1004400000409093004180930041B0930041A093FD
:100450000041ECE2F0E0E09300402F5F3F4F261BAD
:10046000370B1196A81BB90B0E94970869877A87EA
:100470008B879C87DC01CB0123E0B695A7959795E8
:1004800087952A95D1F79C0189859A858770992748
:10049000019728F05093004140930041F9CF211576
:1004A000310519F1509300414093004150930041B0
:1004B00040930041509300414093004150930041CC
:1004C00040930041509300414093004150930041BC
:1004D00040930041509300414093004150930041AC
:1004E0004093004121503109DACF2C960FB6F89491
:1004F000DEBF0FBECDBFDF91CF911F910F91089549
:100500000F931F939C01CA014AE250E040930040C0
:1005100070930041609300417093004160930041EB
:100520004BE250E040930040309300412093004163
:1005300030930041209300412CE230E020930040B2
:1005400090930041809300411F910F910895CF92A5
:10055000DF92EF92FF920F931F93CF93DF93CDB76C
:10056000DEB728970FB6F894DEBF0FBECDBF6B0184
:100570007A83698361507109640F751F462F7C83EC
:100580006B83682F9E838D830197820F931F9887BB
:100590008F832C2D3A815C817E8198850E94F401A5
:1005A00028960FB6F894DEBF0FBECDBFDF91CF9176
:1005B0001F910F91FF90EF90DF90CF9008950F93D0
:1005C0001F93CF93DF93CDB7DEB728970FB6F8947C
:1005D000DEBF0FBECDBF29833A834B835C836D831F
:1005E0007E838F83988789819A814B815C816D811D
:1005F0007E81AF81B8852AE230E02093004090935D
:1006000000418093004150930041409300412BE210
:1006100030E0209300407093004160930041B0931C
:100620000041A09300412CE230E0209300404817A5
:10063000590788F09B01A217B30758F0F801019100
:10064000119110930041009300412F5F3F4F8F01A4
:10065000F2CF0196ECCF28960FB6F894DEBF0FBE0E
:10066000CDBFDF91CF911F910F9108950F931F93ED
:10067000CF93DF93CDB7DEB728970FB6F894DEBFE0
:100680000FBECDBFE6E0F1E017821682118610861C
:1006900086E09E012F5F3F4FD9011D928A95E9F7B1
:1006A000808191810197482F9C838B8382819381E4
:1006B000019798878F830485158529813A815C810C
:1006C0006D817E8198850E94F40128960FB6F8947A
:1006D000DEBF0FBECDBFDF91CF911F910F91089567
:1006E000CF93DF9386E08093750080E88093740059
:1006F0003F9A249A0E945B0188E290E08093004038
:1007000081E190E0809300402FEF86E791E0215057
:1007100080409040E1F700C0000081E090E02BECC9
:1007200030E0209300408093004120EC30E02093A3
:10073000004028E036E2309300412093004121EC54
:1007400030E040E150E0209300404093004125EC30
:1007500030E0209300402EE335E3309300412093B6
:10076000004127EC30E045EB50E0209300404093FF
:10077000004126EF30E02093004080930041D0E01C
:10078000C0E0D0930041C09300418AE390E025E5AA
:1007900030E0809300402093004190E080E00E9490
:1007A0007C010E943603E6E0F1E017821682118692
:1007B0001086158614868FEF9FEF9387828789E2D4
:1007C00090E0809300402FE788E391E02150804043
:1007D0009040E1F700C0000085E390E08093004086
:1007E000C0930041EAE6F0E08081806280832C9A29
:1007F000DF91CF910895CF92DF92EF92FF920F9306
:100800001F93CF93DF937C01D62FC72F8A0186E0F9
:100810008093750080E8809374003F9A249A0E9428
:100820005B0188E290E08093004081E190E080935A
:1008300000402FEF86E791E0215080409040E1F7A3
:1008400000C0000081E090E02BEC30E020930040FD
:100850008093004120EC30E02093004028E036E215
:10086000309300412093004121EC30E040E150E022
:10087000209300404093004125EC30E0209300405D
:100880002EE335E3309300412093004127EC30E024
:1008900045EB50E0209300404093004126EF30E0CC
:1008A0002093004080930041D12CC12CD092004174
:1008B000C09200418AE390E025E530E0809300405B
:1008C00020930041C7010E947C010E943603E6E0AC
:1008D000F1E0178216821186108604871587D28769
:1008E000C38789E290E0809300402FE788E391E09E
:1008F000215080409040E1F700C0000085E390E087
:1009000080930040C0920041EAE6F0E0808180627E
:1009100080832C9ADF91CF911F910F91FF90EF90E0
:10092000DF90CF9008956F927F928F929F92AF92B7
:10093000BF92CF92DF92EF92FF920F931F93CF93CC
:10094000DF93E82FB62EA72EDA0180910E01909149
:100950000F01EA3009F510920D0110920C01089672
:1009600090930F0180930E012091080130910901AD
:100970008217930708F497C0DF91CF911F910F91D1
:10098000FF90EF90DF90CF90BF90AF909F908F90AF
:100990007F906F900C943603E052EF3508F083C0DF
:1009A00020910C0130910D0189010C5F1F4FEC016A
:1009B000279645E0E402F0011124E856FF4F4BE290
:1009C00050E0409300409093004180930041D093C9
:1009D0000041C09300416AE270E04CE2E42EF12C49
:1009E0008A2E7B2E0217130740F16093004030934C
:1009F0000041209300413093004120930041E09258
:100A00000040649031966C0199249394CC15DD05D7
:100A100088F0492D462159F4482D572D5093004117
:100A2000409300414FEFC41AD40A990CEFCF4B2DDD
:100A30005A2DF4CF2F5F3F4FD5CF4AE250E040937D
:100A400000403093004120930041309300412093B7
:100A500000412CE230E020930040C817D90730F065
:100A6000B0930041A09300410196F7CF80910C0113
:100A700090910D01069690930D0180930C012091A9
:100A80000601309107018217930768F010920D015B
:100A900010920C0180910E0190910F010896909395
:100AA0000F0180930E01DF91CF911F910F91FF9065
:100AB000EF90DF90CF90BF90AF909F908F907F90FE
:100AC0006F900895CF92DF92FF920F931F93CF9371
:100AD000DF936C01F22ED32F50930D0140930C0144
:100AE00070930F0160930E01C0E0F601EC0FF11D51
:100AF0008081882339F0A8016F2D7D2F0E949304F7
:100B0000CF5FF3CFDF91CF911F910F91FF90DF90D7
:100B1000CF900895CF93DF9300D000D00F92CDB740
:100B2000DEB7873708F044C0883008F444C08D33FE
:100B300008F03FC08F3108F042C0803108F442C055
:100B400022E02D8321EB30E0209300409D819093A3
:100B50000041282F30E050E040E029833A834B8366
:100B60005C83CA01B9010E9449099B01AC0160E0A4
:100B700070E080EF94E40E94A60869837A838B83F7
:100B80009C8369817A818B819C810E94180970E025
:100B90000D8002C0759567950A94E2F76093004155
:100BA0000F900F900F900F900F90DF91CF910895BD
:100BB00086E71D82C7CF88E033E03D83C3CF41E0A5
:100BC0004D83C0CF53E05D83BDCF0C94FB038F9268
:100BD0009F92AF92BF92CF92DF92EF92FF920F93CC
:100BE0001F93CF93DF93CDB7DEB72A970FB6F89454
:100BF000DEBF0FBECDBF6D837E838F83988749870D
:100C00005A8749011D2DA02EB12C89859A85281758
:100C1000390708F4C901A816B906E8F0870194015C
:100C200049855A856D817E818F8198850E94A702B2
:100C30002A960FB6F894DEBF0FBECDBFDF91CF91DD
:100C40001F910F91FF90EF90DF90CF90BF90AF90EA
:100C50009F908F9008952D813E813A8329838F81C3
:100C600098859C838B830C2D940149855A856981D5
:100C70007A818B819C810E94A7022D813E813A83DB
:100C800029838F8198859C838B8387019501498572
:100C90005A8569817A818B819C810E94A7022D816E
:100CA0003E813A8329838F819885880D991D9C0107
:100CB0002A193B093C832B83950149855A85698113
:100CC0007A818B819C810E94A7028D819E819A836B
:100CD00089832F8138853C832B839401A501698109
:100CE0007A818B819C810E94A70289859A852D81BA
:100CF0003E81820F931F8A199B099A8389838F8172
:100D000098859C838B839401A50169817A818B816D
:100D10009C818CCF2F923F924F925F926F927F92E5
:100D20008F929F92AF92BF92CF92DF92EF92FF92FB
:100D30000F931F93CF93DF93CDB7DEB7A6970FB670
:100D4000F894DEBF0FBECDBF4B015C012EA33DA3C7
:100D50003B012C018A01CA01880F991F23E030E072
:100D60007901E81AF90A7A8369836A01CA0CDB1CE3
:100D7000DC82CB824EA15DA169817A818B819C81CD
:100D80000E9480029A828982DC82CB824EA15DA180
:100D900069817A818B819C810E9480029A828982FA
:100DA0006501C01AD10ADC82CB824EA15DA16981A6
:100DB0007A818B819C810E9480029A828982DC8266
:100DC000CB824EA15DA169817A818B819C810E9439
:100DD00080021801280C391C3A822982BC82AB821D
:100DE0004EA15DA169817A818B819C810E948002E4
:100DF0006401C01AD10ADA82C982BC82AB824EA1D8
:100E00005DA169817A818B819C810E9480023A82F6
:100E10002982BC82AB824EA15DA169817A818B81DE
:100E20009C810E948002DA82C982BC82AB824EA180
:100E30005DA169817A818B819C810E94800244E05E
:100E4000242E312CD12CC12C0C151D050CF49FC067
:100E50008FEFC81AD80A1E141F040CF092C001505C
:100E60001109C601801B910B880F991F880F991FCC
:100E7000E80EF91E9AE0E90EF11C5301AC0CBD1C02
:100E8000BAA2A9A24201800E911E9CA28BA24EA1E1
:100E90005DA169A17AA18BA19CA10E948002C301DE
:100EA0008C199D099A8389839E8F8D8F98A28F8E2E
:100EB0004EA15DA16D8D7E8D8F8D98A10E948002C7
:100EC000BA8EA98E5201A01AB10ABC8EAB8E4EA169
:100ED0005DA1698D7A8D8B8D9C8D0E9480028981A8
:100EE0009A819E8B8D8BB88EAF8A4EA15DA16D8944
:100EF0007E898F89988D0E9480025801A60CB71CAC
:100F0000BA8AA98A42018C0C9D1C9C8A8B8A4EA1AC
:100F10005DA169897A898B899C890E948002C301BD
:100F2000801B910B9A8389839E878D87988A8F86F1
:100F30004EA15DA16D857E858F8598890E94800276
:100F4000BA86A9865201AC18BD08BC86AB864EA1F4
:100F50005DA169857A858B859C850E948002898147
:100F60009A819E838D83B886AF824EA15DA16D81EB
:100F70007E818F8198850E94800294E0290E311C29
:100F800063CFE20CF31C86E0E80EF11C76CFA69648
:100F90000FB6F894DEBF0FBECDBFDF91CF911F918A
:100FA0000F91FF90EF90DF90CF90BF90AF909F9008
:100FB0008F907F906F905F904F903F902F9008950B
:100FC000CF92DF92EF92FF920F931F93CF93DF9315
:100FD000CDB7DEB728970FB6F894DEBF0FBECDBFF2
:100FE0007C01CA018901262F7A836983860F971FA6
:100FF000482F9C838B836E2DFE82ED82F886EF82D4
:101000003A815C817E818E2D98850E94F40128961C
:101010000FB6F894DEBF0FBECDBFDF91CF911F9109
:101020000F91FF90EF90DF90CF900895CF92DF92D5
:10103000EF92FF920F931F93CF93DF93CDB7DEB75D
:1010400028970FB6F894DEBF0FBECDBF7C01CA0152
:101050008901262F7A836983462F7C836B836E2DCB
:10106000FE82ED828E0D9F1D98878F833A815C8171
:101070007E8198850E94F40128960FB6F894DEBF11
:101080000FBECDBFDF91CF911F910F91FF90EF90D9
:10109000DF90CF9008950F931F93F62FE72FBC0199
:1010A000CA014F2F5E2F0E9462051F910F91089574
:1010B0000C9436030F931F930E94A7021F910F9168
:1010C000089500D000D0CDB7DEB7E1E6F0E080E8CB
:1010D0008083108250E040E06FEF7FEF81E090E08E
:1010E0000E94E5051F9284E08F9380E091E09F933A
:1010F0008F93CE0101967C019F938F930E94D50917
:1011000010E000E02FEF3FEFA70160E070E0CB01BF
:101110000E944B080F900F900F900F900F900F9020
:1011200090E080E00F900F900F900F900895A29F95
:10113000B001B39FC001A39F700D811D1124911DAB
:10114000B29F700D811D1124911D08950E94BA084F
:101150000C949B090E94940958F00E948D0940F05C
:1011600029F45F3F29F00C94840951110C94CF09A4
:101170000C948A090E94AC0968F39923B1F35523B2
:1011800091F3951B550BBB27AA276217730784079A
:1011900038F09F5F5F4F220F331F441FAA1FA9F330
:1011A00035D00E2E3AF0E0E832D091505040E6951E
:1011B000001CCAF72BD0FE2F29D0660F771F881F7F
:1011C000BB1F261737074807AB07B0E809F0BB0B72
:1011D000802DBF01FF2793585F4F3AF09E3F510586
:1011E00078F00C9484090C94CF095F3FE4F3983EA7
:1011F000D4F3869577956795B795F7959F5FC9F76F
:10120000880F911D9695879597F90895E1E0660FEF
:10121000771F881FBB1F621773078407BA0720F068
:10122000621B730B840BBA0BEE1F88F7E0950895D1
:101230000E94B40988F09F5798F0B92F9927B751A9
:10124000B0F0E1F0660F771F881F991F1AF0BA956A
:10125000C9F714C0B13091F00E94CE09B1E00895F1
:101260000C94CE09672F782F8827B85F39F0B93FE3
:10127000CCF3869577956795B395D9F73EF490951D
:101280008095709561957F4F8F4F9F4F0895E8949B
:1012900009C097FB3EF490958095709561957F4FBE
:1012A0008F4F9F4F9923A9F0F92F96E9BB2793956C
:1012B000F695879577956795B795F111F8CFFAF47C
:1012C000BB0F11F460FF1BC06F5F7F4F8F4F9F4FAD
:1012D00016C0882311F096E911C0772321F09EE80B
:1012E000872F762F05C0662371F096E8862F70E071
:1012F00060E02AF09A95660F771F881FDAF7880F4B
:101300009695879597F9089597F99F6780E870E01B
:1013100060E008959FEF80EC089500240A9416166B
:10132000170618060906089500240A9412161306D3
:10133000140605060895092E0394000C11F4882361
:1013400052F0BB0F40F4BF2B11F460FF04C06F5F7D
:101350007F4F8F4F9F4F089557FD9058440F551F53
:1013600059F05F3F71F04795880F97FB991F61F027
:101370009F3F79F087950895121613061406551F9E
:10138000F2CF4695F1DF08C0161617061806991F0A
:10139000F1CF86957105610508940895E894BB27FF
:1013A00066277727CB0197F908950F931F93CF9363
:1013B000DF93CDB7DEB72E970FB6F894DEBF0FBE22
:1013C000CDBF0D891E8986E08C831A8309838FEF38
:1013D0009FE79E838D83AE01475E5F4F6F89788D57
:1013E000CE0101960E94050A2F813885020F131F36
:1013F000F80110822E960FB6F894DEBF0FBECDBF57
:10140000DF91CF911F910F9108952F923F924F92AC
:101410005F926F927F928F929F92AF92BF92CF9284
:10142000DF92EF92FF920F931F93CF93DF93CDB78D
:10143000DEB72F970FB6F894DEBF0FBECDBF7C018D
:101440003B018A01DC0117961C921E921697139697
:101450008C9181FFD3C19AE0292EFE0131964F0174
:10146000D70113969C91F30193FD859193FF819190
:101470003F01882309F444C1853239F493FD8591F5
:1014800093FF81913F01853229F4B70190E00E94DA
:10149000170CE6CFB12C412C512CBFE1B51538F01B
:1014A0008B3209F188F4803201F1833221F157FC4B
:1014B0003AC020ED280F2A3040F556FE1FC0B29CDE
:1014C000200D1124B22E06C08D3291F0803379F7B1
:1014D000689450F8F30193FD859193FF81913F014A
:1014E0008111DBCF20C0689451F8689452F8F2CF94
:1014F000689453F8EFCF689454F8ECCF429C200DD9
:101500001124422E689455F8E5CF8E3229F456FC0A
:10151000F7C0689456F8DECF8C3619F4689457F803
:10152000D9CF8836B9F2982F9F7D95549330C0F06B
:101530008336A1F18337C1F1833509F05BC0D8014F
:10154000CD90DD908D016B2D70E056FC02C06FEFE9
:101550007FEFC6010E94010C5C01689457F80AC035
:101560000C5F1F4FEFE3E983AA24A394B12C64011D
:10157000E89457F853FC04C04A141B0409F018F50A
:10158000342CA114B10431F5332009F469CFB7012B
:1015900080E290E00E94170C3A94F6CFD8018C912B
:1015A00089830E5F1F4FE0CFF801C190D1908F016A
:1015B0006B2D70E056FC02C06FEF7FEFC6010E94FA
:1015C0000C0C5C01D5CFB70180E290E00E94170CB3
:1015D0004A94D2CFF60157FC859157FE81916F0155
:1015E000B70190E00E94170C31103A94B1E0AB1AA9
:1015F000B108C7CF843619F0893609F071C0F801F7
:1016000057FE67C061917191819191918F01E52D94
:10161000EF76DE2E97FF09C09095809570956195C5
:101620007F4F8F4F9F4F6894D7F82AE030E0A40196
:101630000E94470CC82EC818AC2C5D2CD6FE0CC0DE
:10164000E89450F8CB1440F4D4FE05C0D2FC03C09B
:101650005D2D5E7E552EAB2C54FEA8C0FE01EC0D18
:10166000F11D8081803309F09AC0652D697E562E68
:10167000752D7870372E53FCA8C050FEA2C0BC2C2C
:10168000A41410F4B40CBA1854FEA5C0B70180E33A
:1016900090E00E94170C52FE07C088E751FC88E5D5
:1016A00090E0B7010E94170CCB1408F4A0C0CA94B4
:1016B000D12C8FEFC81AD80AC80CD91CD6018E912C
:1016C0006D01B70190E00E94170C8C149D04B1F7D6
:1016D0005BCF61917191072E000C880B990B96CF0F
:1016E000D52CE894D4F82AE08537D1F1F52DF97F8F
:1016F000DF2E803749F100F5883549F18F3679F1D1
:10170000F701868197812F960FB6F894DEBF0FBE42
:10171000CDBFDF91CF911F910F91FF90EF90DF90A0
:10172000CF90BF90AF909F908F907F906F905F9081
:101730004F903F902F900895883711F7D4FE02C044
:101740006894D2F820E10CC06894D4F8F7CF54FE26
:1017500003C02F2F2660D22E20E132E002C028E005
:1017600030E0F801D7FE15C041915191619171911E
:101770004C875D876E877F878F01A4016C857D858F
:101780008E859F850E94470CC82EC818E894D7F80C
:1017900053CF81919191AC0170E060E0E9CF52FCB0
:1017A00002C0A39465CFA394A39462CF852D8678BD
:1017B00009F45ECFF6CFB70180E290E00E94170CEB
:1017C000A394A414C0F3312C5FCF342C3A18A41482
:1017D00008F45ACFF8CF852D867809F465CF8BE2CF
:1017E00051FE80E257FC8DE2B70190E05BCFB7017C
:1017F00080E390E00E94170CBA9456CF8FEF9FEFD2
:1018000082CFFC010590615070400110D8F780959F
:1018100090958E0F9F1F0895FC01615070400190BC
:101820000110D8F7809590958E0F9F1F08950F9304
:101830001F93CF93DF93182F092FEB018B8181FD2D
:1018400009C01FEF0FEF812F902FDF91CF911F91D4
:101850000F91089582FF14C02E813F818C819D815C
:10186000281739073CF4E881F981CF010196998363
:10187000888310838E819F8101969F838E83E3CF1F
:10188000E885F985812F0995892BA1F3DACFFA0133
:10189000AA27283051F1203181F1E8946F936E7FAF
:1018A0006E5F7F4F8F4F9F4FAF4FB1E03ED0B4E0A0
:1018B0003CD0670F781F891F9A1FA11D680F791FE1
:1018C0008A1F911DA11D6A0F711D811D911DA11DF2
:1018D00020D009F468943F912AE0269F1124301902
:1018E000305D3193DEF6CF010895462F4770405D9D
:1018F0004193B3E00FD0C9F7F6CF462F4F70405D4C
:101900004A3318F0495D31FD4052419302D0A9F7A6
:10191000EACFB4E0A6959795879577956795BA95A0
:10192000C9F700976105710508959B01AC010A2E66
:1019300006945795479537952795BA95C9F7620F3D
:0E194000731F841F951FA01D0895F894FFCFFC
:06194E00253032640000A8
:00000001FF
