:100000000C943A010C944C010C944C010C944C014E
:100010000C944C010C944C010C944C010C944C012C
:100020000C944C010C944C010C944C010C944C011C
:100030000C944C010C944C010C944C010C944C010C
:100040000C944C010C944C010C944C010C944C01FC
:100050000C944C010C944C010C944C010C944C01EC
:100060000C944C010C944C010C944C010C944C01DC
:100070000C944C010C944C010C944C010C944C01CC
:100080000C944C010C944C010C944C010C944C01BC
:100090000C944C010C944C01000000000000005F27
:1000A00000000003000300143E143E14242A7F2A9B
:1000B000124333086661364955225000050300009B
:1000C000001C2241000041221C0014083E081408B4
:1000D000083E0808005030000008080808080060C2
:1000E00060000020100804023E5149453E00040211
:1000F0007F00426151494622414949361814127F16
:100100001027454545393E494949320101710907E2
:100110003649494936264949493E003636000000ED
:10012000563600000814224100141414141400411F
:1001300022140802015109063E4159555E7E090903
:10014000097E7F494949363E414141227F41414133
:100150003E7F494949417F090909013E4141493AE8
:100160007F0808087F00417F4100304040403F7FCA
:10017000081422417F404040407F020C027F7F02F2
:1001800004087F3E4141413E7F090909061E2121A5
:10019000215E7F09090976264949493201017F011B
:1001A000013F4040403F1F2040201F7F2010207F04
:1001B00041221C224107087008076151494543004C
:1001C0007F41000002040810200000417F0004026B
:1001D0000102044040404040000102040020545409
:1001E00054787F4444443838444444443844444474
:1001F0007F385454541804047E0505085454543C64
:100200007F0804047800447D40002040443D007F86
:100210001028440000417F40007C047804787C086A
:1002200004047838444444387C1414140808141422
:10023000147C007C080404485454542004043F44B3
:10024000443C4040207C1C2040201C3C4030403C32
:1002500044281028440C5050503C4464544C4400F2
:100260000836414100007F0000414136080002018C
:100270000204020011241FBECFEFD0E2DEBFCDBFCB
:1002800021E0A0E0B1E001C01D92AE30B207E1F77D
:100290000E9491060C94F2070C9400008FEC97E0FA
:1002A0000197F1F700C0000047988FE39CE90197A0
:1002B000F1F700C00000479A9FEF2DEE82E09150C9
:1002C00020408040E1F700C00000089593E890933B
:1002D000B00091E09093B1008093B30008959C0129
:1002E000909305018093040186E390E080930040A1
:1002F00021153105A9F580EF90E0909301018093DD
:10030000000180E491E0909303018093020188E46E
:1003100090E0809300418AE290E08093004030E0DA
:1003200020E03093004120930041809100019091A2
:100330000101019790930041809300418BE290E08E
:10034000809300403093004120930041809102014E
:10035000909103010197909300418093004108958B
:100360002130310579F480E491E09093010180938C
:10037000000180EF90E0909303018093020188EEEA
:1003800090E0C7CF2230310579F480EF90E0909370
:1003900001018093000180E491E090930301809338
:1003A000020188E890E0B5CF2330310509F0B3CFE2
:1003B00080E491E0909301018093000180EF90E050
:1003C000909303018093020188E290E0A2CF0F9303
:1003D0001F93CF93DF93CDB7DEB728970FB6F8946E
:1003E000DEBF0FBECDBF29833A834B835C836D8311
:1003F0007E838F839887A801E981FA812B813C81D4
:100400006D817E818F819885AAE2B0E0A093004043
:10041000F0930041E093004130930041209300416C
:10042000ABE2B0E0A09300407093004160930041C4
:100430009093004180930041ACE2B0E0A093004073
:100440002F5F3F4F2E1B3F0B0196861B970B2817E4
:100450003907F8F4FC01E770FF27E29FB001E39F42
:10046000700DF29F700D1124F3E096958795FA9523
:10047000E1F7289FF001299FF00D389FF00D11241E
:10048000962F97709150A8F05093004140930041EF
:10049000F9CFF901E770FF27E89FB001E99F700DE0
:1004A000F89F700D1124E3E036952795EA95E1F762
:1004B000E0CFCB0123E0969587952A95E1F78E0F43
:1004C0009F1F009711F150930041409300415093BA
:1004D00000414093004150930041409300415093AC
:1004E000004140930041509300414093004150939C
:1004F000004140930041509300414093004150938C
:100500000041409300410197DCCF28960FB6F89444
:10051000DEBF0FBECDBFDF91CF911F910F91089528
:10052000CF92DF92EF92FF920F931F93CF93DF93BF
:10053000CDB7DEB728970FB6F894DEBF0FBECDBF9C
:100540006B017A83698361507109640F751F462FAF
:100550007C836B83682F9E838D830197820F931F0B
:1005600098878F832C2D3A815C817E8198850E94AB
:10057000E70128960FB6F894DEBF0FBECDBFDF911E
:10058000CF911F910F91FF90EF90DF90CF90089542
:100590000F931F93CF93DF93CDB7DEB728970FB696
:1005A000F894DEBF0FBECDBF29833A834B835C83B3
:1005B0006D837E838F83988789819A814B815C814B
:1005C0006D817E81AF81B8852AE230E020930040C2
:1005D000909300418093004150930041409300412B
:1005E0002BE230E020930040709300416093004183
:1005F000B0930041A09300412CE230E020930040F2
:100600004817590788F09B01A217B30758F0F80163
:100610000191119110930041009300412F5F3F4FD2
:100620008F01F2CF0196ECCF28960FB6F894DEBF7B
:100630000FBECDBFDF91CF911F910F9108950F9302
:100640001F93CF93DF93CDB7DEB728970FB6F894FB
:10065000DEBF0FBECDBFE0E0F1E01782168211864B
:10066000108686E09E012F5F3F4FD9011D928A952B
:10067000E9F7808191810197482F9C838B83828148
:100680009381019798878F830485158529813A8105
:100690005C816D817E8198850E94E70128960FB666
:1006A000F894DEBF0FBECDBFDF91CF911F910F91A8
:1006B0000895CF93DF9386E08093750080E8809360
:1006C00074003F9A249A0E944E0188E290E0809341
:1006D000004081E190E0809300402FEF86E791E0B9
:1006E000215080409040E1F700C0000081E090E0A0
:1006F0002BEC30E0209300408093004120EC30E070
:100700002093004028E036E23093004120930041DE
:1007100021EC30E040E150E0209300404093004164
:1007200025EC30E0209300402EE335E33093004188
:100730002093004127EC30E045EB50E0209300404F
:100740004093004126EF30E0209300408093004129
:10075000D0E0C0E0D0930041C09300418AE390E034
:1007600025E530E0809300402093004190E080E058
:100770000E946F010E941F03E0E0F1E017821682E1
:1007800011861086158614868FEF9FEF93878287D8
:1007900089E290E0809300402FE788E391E02150C8
:1007A00080409040E1F700C0000085E390E0809336
:1007B0000040C0930041EAE6F0E0808180628083DF
:1007C0002C9ADF91CF910895CF92DF92EF92FF9212
:1007D0000F931F93CF93DF937C01D62FC72F8A01EE
:1007E00086E08093750080E8809374003F9A249A95
:1007F0000E944E0188E290E08093004081E190E009
:10080000809300402FEF86E791E021508040904098
:10081000E1F700C0000081E090E02BEC30E0209395
:1008200000408093004120EC30E02093004028E01D
:1008300036E2309300412093004121EC30E040E16A
:1008400050E0209300404093004125EC30E020939D
:1008500000402EE335E3309300412093004127EC24
:1008600030E045EB50E0209300404093004126EFFC
:1008700030E02093004080930041D12CC12CD092D5
:100880000041C09200418AE390E025E530E080938A
:10089000004020930041C7010E946F010E941F0386
:1008A000E0E0F1E017821682118610860487158732
:1008B000D287C38789E290E0809300402FE788E3E6
:1008C00091E0215080409040E1F700C0000085E3B6
:1008D00090E080930040C0920041EAE6F0E0808121
:1008E000806280832C9ADF91CF911F910F91FF90AE
:1008F000EF90DF90CF900895CF92DF92EF92FF922A
:100900000F931F93CF93DF93E82F8091080190916D
:100910000901EA30D9F410920701109206010896F5
:100920009093090180930801209102013091030105
:100930008217930708F496C0DF91CF911F910F9112
:10094000FF90EF90DF90CF900C941F03E052EF35B3
:1009500008F088C0209106013091070189010C5FE1
:100960001F4FAC01495F5F4F65E0E602F0011124C3
:10097000E856FF4F6BE270E06093004090930041B7
:100980008093004150930041409300416AE2E62E7B
:10099000F12C7CE2C72ED12C0217130748F1E0920C
:1009A0000040309300412093004130930041209358
:1009B0000041C092004074913196DC0161E04A1719
:1009C0005B0798F0C62FC72359F0C0910A01D09158
:1009D0000B01D0930041C09300411196660FEFCFF9
:1009E000C0910C01D0910D01F4CF2F5F3F4FD4CFB8
:1009F0006AE270E060930040309300412093004130
:100A000030930041209300412CE230E020930040DD
:100A10004817590750F020910C0130910D01309387
:100A20000041209300410196F3CF809106019091FF
:100A3000070106969093070180930601209100011B
:100A4000309101018217930768F01092070110920C
:100A5000060180910801909109010896909309017F
:100A600080930801DF91CF911F910F91FF90EF903C
:100A7000DF90CF9008950F931F93CF938C01C0E028
:100A8000F801EC0FF11D8081882321F00E947C0485
:100A9000CF5FF6CFCF911F910F9108950F931F93C2
:100AA000CF938C0170930701609306015093090165
:100AB00040930801C0E0F801EC0FF11D808188230C
:100AC00021F00E947C04CF5FF6CFCF911F910F9150
:100AD0000895EF92FF920F931F93CF93DF93D0E08F
:100AE000C0E090E8E92EF12C082F10E0C7010C2E91
:100AF00002C0959587950A94E2F780239123892B6C
:100B000071F081E30E947C042196C830D10571F711
:100B1000DF91CF911F910F91FF90EF9008958EE29A
:100B2000F1CFCF93DF9300D000D00F92CDB7DEB7D7
:100B3000873708F044C0883008F444C08D3308F08B
:100B40003FC08F3108F042C0803108F442C022E03B
:100B50002D8321EB30E0209300409D819093004154
:100B6000282F30E050E040E029833A834B835C83B8
:100B7000CA01B9010E9466079B01AC0160E070E008
:100B800080EF94E40E94C30669837A838B839C83FD
:100B900069817A818B819C810E94350770E00D808C
:100BA00002C0759567950A94E2F7609300410F9033
:100BB0000F900F900F900F90DF91CF91089586E7DF
:100BC0001D82C7CF88E033E03D83C3CF41E04D8332
:100BD000C0CF53E05D83BDCF0C94E4038F929F920E
:100BE000AF92BF92CF92DF92EF92FF920F931F933B
:100BF000CF93DF93CDB7DEB72A970FB6F894DEBF59
:100C00000FBECDBF6D837E838F83988749875A87B8
:100C100049011D2DA02EB12C89859A8528173907E9
:100C200008F4C901A816B906E8F0870194014985BE
:100C30005A856D817E818F8198850E9490022A96C7
:100C40000FB6F894DEBF0FBECDBFDF91CF911F91DD
:100C50000F91FF90EF90DF90CF90BF90AF909F905B
:100C60008F9008952D813E813A8329838F819885C5
:100C70009C838B830C2D940149855A8569817A81E7
:100C80008B819C810E9490022D813E813A83298331
:100C90008F8198859C838B838701950149855A852F
:100CA00069817A818B819C810E9490022D813E8195
:100CB0003A8329838F819885880D991D9C012A1973
:100CC0003B093C832B83950149855A8569817A814B
:100CD0008B819C810E9490028D819E819A83898361
:100CE0002F8138853C832B839401A50169817A810A
:100CF0008B819C810E94900289859A852D813E81FD
:100D0000820F931F8A199B099A8389838F81988503
:100D10009C838B839401A50169817A818B819C815D
:100D20008CCF80E8809361001092610050E040E039
:100D30006FEF7FEF81E090E00E94EC0580EEC82E1F
:100D400087E0D82EE12C98EFF92E02E02AE030E07F
:100D50004AE050E060E070E0CB010E94EE05D1E097
:100D6000C0E0CD0FCF3F69F0C11101C0D1E08C2FA1
:100D70000E9466018FE99FE00197F1F700C0000033
:100D8000F0CFDFEFF4CF0E94D7060C94B8070E9493
:100D9000B10758F00E94AA0740F029F45F3F29F0FC
:100DA0000C94A10751110C94EC070C94A7070E9416
:100DB000C90768F39923B1F3552391F3951B550B9C
:100DC000BB27AA2762177307840738F09F5F5F4F1E
:100DD000220F331F441FAA1FA9F335D00E2E3AF05D
:100DE000E0E832D091505040E695001CCAF72BD075
:100DF000FE2F29D0660F771F881FBB1F26173707C6
:100E00004807AB07B0E809F0BB0B802DBF01FF27F7
:100E100093585F4F3AF09E3F510578F00C94A1072C
:100E20000C94EC075F3FE4F3983ED4F386957795F6
:100E30006795B795F7959F5FC9F7880F911D9695B0
:100E4000879597F90895E1E0660F771F881FBB1F0C
:100E5000621773078407BA0720F0621B730B840BB9
:100E6000BA0BEE1F88F7E09508950E94D10788F02D
:100E70009F5798F0B92F9927B751B0F0E1F0660F5E
:100E8000771F881F991F1AF0BA95C9F714C0B1309F
:100E900091F00E94EB07B1E008950C94EB07672FE7
:100EA000782F8827B85F39F0B93FCCF386957795CE
:100EB0006795B395D9F73EF49095809570956195B7
:100EC0007F4F8F4F9F4F0895E89409C097FB3EF4E2
:100ED00090958095709561957F4F8F4F9F4F992387
:100EE000A9F0F92F96E9BB279395F6958795779505
:100EF0006795B795F111F8CFFAF4BB0F11F460FFC5
:100F00001BC06F5F7F4F8F4F9F4F16C0882311F01C
:100F100096E911C0772321F09EE8872F762F05C030
:100F2000662371F096E8862F70E060E02AF09A95CB
:100F3000660F771F881FDAF7880F9695879597F9C0
:100F4000089597F99F6780E870E060E008959FEF4B
:100F500080EC089500240A94161617061806090650
:100F6000089500240A94121613061406050608951F
:100F7000092E0394000C11F4882352F0BB0F40F4A7
:100F8000BF2B11F460FF04C06F5F7F4F8F4F9F4FE7
:100F9000089557FD9058440F551F59F05F3F71F069
:100FA0004795880F97FB991F61F09F3F79F08795D0
:100FB0000895121613061406551FF2CF4695F1DF59
:100FC00008C0161617061806991FF1CF86957105E9
:100FD000610508940895E894BB2766277727CB011D
:080FE00097F90895F894FFCF82
:00000001FF
