:100000000C943A010C9459010C9459010C94590127
:100010000C9459010C9459010C9459010C945901F8
:100020000C9459010C9459010C9459010C945901E8
:100030000C9459010C9459010C9459010C945901D8
:100040000C9459010C9459010C9459010C945901C8
:100050000C9459010C9459010C9459010C945901B8
:100060000C9459010C9459010C9459010C945901A8
:100070000C9459010C9459010C9459010C94590198
:100080000C9459010C9459010C9459010C94590188
:100090000C9459010C945901000000000000005F0D
:1000A00000000003000300143E143E14242A7F2A9B
:1000B000124333086661364955225000050300009B
:1000C000001C2241000041221C0014083E081408B4
:1000D000083E0808005030000008080808080060C2
:1000E00060000020100804023E5149453E00040211
:1000F0007F00426151494622414949361814127F16
:100100001027454545393E494949320101710907E2
:100110003649494936264949493E003636000000ED
:10012000563600000814224100141414141400411F
:1001300022140802015109063E4159555E7E090903
:10014000097E7F494949363E414141227F41414133
:100150003E7F494949417F090909013E4141493AE8
:100160007F0808087F00417F4100304040403F7FCA
:10017000081422417F404040407F020C027F7F02F2
:1001800004087F3E4141413E7F090909061E2121A5
:10019000215E7F09090976264949493201017F011B
:1001A000013F4040403F1F2040201F7F2010207F04
:1001B00041221C224107087008076151494543004C
:1001C0007F41000002040810200000417F0004026B
:1001D0000102044040404040000102040020545409
:1001E00054787F4444443838444444443844444474
:1001F0007F385454541804047E0505085454543C64
:100200007F0804047800447D40002040443D007F86
:100210001028440000417F40007C047804787C086A
:1002200004047838444444387C1414140808141422
:10023000147C007C080404485454542004043F44B3
:10024000443C4040207C1C2040201C3C4030403C32
:1002500044281028440C5050503C4464544C4400F2
:100260000836414100007F0000414136080002018C
:100270000204020011241FBECFEFD0E2DEBFCDBFCB
:1002800012E0A0E0B1E0E4EDF3E200E00BBF02C059
:1002900007900D92A833B107D9F722E0A8E3B2E0A6
:1002A00001C01D92A834B207E1F70E94EA0E0C9437
:1002B000E8110C9400000C94F60C8F929F92AF9270
:1002C000BF92CF92DF92EF92FF920F931F93CF9343
:1002D000DF93CDB7DEB72A970FB6F894DEBF0FBE17
:1002E000CDBF6D837E838F83988749875A87490165
:1002F0001D2DA02EB12C89859A852817390708F461
:10030000C901A816B906E8F08701940149855A8504
:100310006D817E818F8198850E94310C2A960FB65F
:10032000F894DEBF0FBECDBFDF91CF911F910F912B
:10033000FF90EF90DF90CF90BF90AF909F908F9005
:1003400008952D813E813A8329838F8198859C83EE
:100350008B830C2D940149855A8569817A818B8123
:100360009C810E94310C2D813E813A8329838F81AB
:1003700098859C838B838701950149855A8569817E
:100380007A818B819C810E94310C2D813E813A8340
:1003900029838F819885880D991D9C012A193B0915
:1003A0003C832B83950149855A8569817A818B81AC
:1003B0009C810E94310C8D819E819A8389832F813B
:1003C00038853C832B839401A50169817A818B81D7
:1003D0009C810E94310C89859A852D813E81820FF6
:1003E000931F8A199B099A8389838F8198859C839F
:1003F0008B839401A50169817A818B819C818CCF4B
:100400002F923F924F925F926F927F928F929F9224
:10041000AF92BF92CF92DF92EF92FF920F931F9312
:10042000CF93DF93CDB7DEB7A6970FB6F894DEBFB4
:100430000FBECDBF4B015C01722E632E7B012C01E0
:100440004DA35EA38DA19EA1880F991F03E010E02C
:10045000081B190B7A836983CDA0DEA0CA0CDB1CB4
:10046000DC82CB82422F562D69817A818B819C81DF
:100470000E940A0C9A828982DC82CB82472D562DFB
:1004800069817A818B819C810E940A0C9A8289827F
:1004900065012DA13EA1C21AD30ADC82CB82472D71
:1004A000562D69817A818B819C810E940A0C9A82E7
:1004B0008982DC82CB82472D562D69817A818B819E
:1004C0009C810E940A0C2DA03EA0280C391C3A8267
:1004D0002982BC82AB82472D562D69817A818B811E
:1004E0009C810E940A0C64018DA19EA1C81AD90AA0
:1004F000DA82C982BC82AB82472D562D69817A810E
:100500008B819C810E940A0C3A822982BC82AB8238
:10051000472D562D69817A818B819C810E940A0C1E
:10052000DA82C982BC82AB82472D562D69817A81DD
:100530008B819C810E940A0C44E0842E912CD12C4A
:10054000C12C8DA19EA18C159D05CCF4A6960FB64D
:10055000F894DEBF0FBECDBFDF91CF911F910F91F9
:10056000FF90EF90DF90CF90BF90AF909F908F90D3
:100570007F906F905F904F903F902F9008959FEFE6
:10058000C91AD90A101611060CF09BC02DA13EA164
:10059000215031093EA32DA3C601821B930B880F66
:1005A000991F880F991F080F191F065F1F4F17010A
:1005B0002C0C3D1C3A862986ADA0BEA0A40CB51C0F
:1005C000BC86AB86472D562D69857A858B859C85A3
:1005D0000E940A0CC7018C199D099A8789879AA3E2
:1005E00089A3BCA2ABA2472D562D69A17AA18BA1EC
:1005F0009CA10E940A0C3E8E2D8E52012DA13EA17F
:10060000A21AB30AB8A2AF8E472D562D6D8D7E8DDE
:100610008F8D98A10E940A0C89859A859A8F898F5F
:10062000BC8EAB8E472D562D698D7A8D8B8D9C8D12
:100630000E940A0C2DA03EA02E0C3F1C3E822D8253
:100640005201AC0CBD1CB886AF82472D562D6D8172
:100650007E818F8198850E940A0C97018DA19EA1B1
:10066000281B390B3E832D833E8B2D8BB88EAF8A92
:10067000472D562D6D897E898F89988D0E940A0C91
:100680003A8A298A5201AC18BD08BC8AAB8A472D28
:10069000562D69897A898B899C890E940A0C2D8143
:1006A0003E813E872D87B88AAF86472D562D6D85B2
:1006B0007E858F8598890E940A0C34E0830E911CF8
:1006C00040CF080D191D0A5F1F4F71CFCF92DF92E7
:1006D000EF92FF920F931F93CF93DF93CDB7DEB7C7
:1006E00028970FB6F894DEBF0FBECDBF7C01CA01BC
:1006F0008901262F7A836983860F971F482F9C8351
:100700008B836E2DFE82ED82F886EF823A815C81CA
:100710007E818E2D98850E945E0B28960FB6F894E8
:10072000DEBF0FBECDBFDF91CF911F910F91FF9024
:10073000EF90DF90CF900895CF92DF92EF92FF92EB
:100740000F931F93CF93DF93CDB7DEB728970FB6E4
:10075000F894DEBF0FBECDBF7C01CA018901262FF0
:100760007A836983462F7C836B836E2DFE82ED82B4
:100770008E0D9F1D98878F833A815C817E8198853D
:100780000E945E0B28960FB6F894DEBF0FBECDBF59
:10079000DF91CF911F910F91FF90EF90DF90CF905D
:1007A00008950F931F93F62FE72FBC01CA014F2F17
:1007B0005E2F0E94670E1F910F9108950C94C00C3C
:1007C0000F931F930E94310C1F910F9108952F9248
:1007D0003F924F925F926F927F928F929F92AF92D1
:1007E000BF92CF92DF92EF92FF920F931F93CF931E
:1007F000DF93CDB7DEB7A4970FB6F894DEBF0FBE78
:10080000CDBF4BA35CA3502E412E7B016C0181E038
:1008100090E04C014BA15CA1841A950A3A017194B5
:1008200061947108660C771CB12CA12C01E010E0DA
:10083000522F547059A3822F82708AA3922F9870DE
:10084000292E2170322E4BA15CA1A416B506CCF046
:10085000A4960FB6F894DEBF0FBECDBFDF91CF9147
:100860001F910F91FF90EF90DF90CF90BF90AF90CE
:100870009F908F907F906F905F904F903F902F90C0
:10088000089597FC0BC02BA13CA1215031093CA33A
:100890002BA332E0630E711C860C971C4FEFA41A39
:1008A000B40A0E5F1F4F800E911E59A1552331F1DE
:1008B000C7018A0D9B1D9E8F8D8F2BA13CA12C0DF6
:1008C0003D1D38A32F8F452D542D6D8D7E8D8F8D21
:1008D00098A10E940A0C4BA15CA14E0D5F1D5A8F7E
:1008E000498FC6018A0D9B1D9C8F8B8F452D542DE2
:1008F000698D7A8D8B8D9C8D0E940A0C9AA199230B
:1009000039F197012A0D3B1D3E8B2D8BA6018BA142
:100910009CA1481B590B588F4F8B452D542D6D8929
:100920007E898F89988D0E940A0C2BA13CA12E0DE7
:100930003F1D3A8B298BA6014A195B095C8B4B8BB7
:10094000452D542D69897A898B899C890E940A0CCE
:10095000222039F1C7012BA13CA1821B930B9E875A
:100960008D87A5014C0D5D1D588B4F87452D542D4E
:100970006D857E858F8598890E940A0CC7018A192A
:100980009B099A8789872BA13CA12C0D3D1D3C8793
:100990002B87452D542D69857A858B859C850E94F2
:1009A0000A0C332009F44FCFA7018BA19CA1481B4F
:1009B000590B5E834D8396012A193B0938872F8393
:1009C000452D542D6D817E818F8198850E940A0C62
:1009D000A7014A195B095A834983C6012BA13CA18F
:1009E000821B930B9C838B83452D542D69817A81C7
:1009F0008B819C810E940A0C26CF2F923F924F92AE
:100A00005F926F927F928F929F92AF92BF92CF929E
:100A1000DF92EF92FF920F931F93CF93DF93CDB7A7
:100A2000DEB764970FB6F894DEBF0FBECDBF4B8B19
:100A30005C8B48012B018C0181E090E05C014B89CB
:100A40005C89A41AB50A1A01319421943108220C48
:100A5000331CD12CC12C66246394712C522F5170FD
:100A6000598B22702A8B4B895C89C416D506CCF031
:100A700064960FB6F894DEBF0FBECDBFDF91CF9165
:100A80001F910F91FF90EF90DF90CF90BF90AF90AC
:100A90009F908F907F906F905F904F903F902F909E
:100AA0000895B7FC0AC08B899C8901979C8B8B8B1E
:100AB00092E0290E311CA20CB31C2FEFC21AD20AED
:100AC00032E0630E711CA60CB71C4989442371F1F6
:100AD000C2018C0D9D1D9E838D8398014B895C897D
:100AE000241B350B38872F83440F551F4F5F5F4FF3
:100AF000480D591D97016D817E818F8198850E94D7
:100B00009C038B899C89840D951D9E878D879801F8
:100B10002C193D09388B2F879701A301480D591DCA
:100B20006D857E858F8598890E949C033A89332341
:100B300009F499CFA2014C195D095A834983C80170
:100B40002B893C89821B930B9C838B83A901440FC7
:100B5000551F4F5F5F4F480D591D970169817A817D
:100B60008B819C810E949C03A2018B899C89481BDC
:100B7000590B5A87498798012C193D093C872B87C7
:100B80009701A401460D571D69857A858B859C8543
:100B90000E949C0368CFEF92FF920F931F93CF9315
:100BA000DF93CDB7DEB72A970FB6F894DEBF0FBE3E
:100BB000CDBF69837A838B839C8349875A87790168
:100BC00029813A813E832D838B819C8129853A85B9
:100BD000821B930B98878F83A901440F551F4F5F8A
:100BE0005F4F97016D817E818F8198850E949C0364
:100BF00010E000E023E049855A8569817A818B8184
:100C00009C810E94FD042A960FB6F894DEBF0FBEA9
:100C1000CDBFDF91CF911F910F91FF90EF9008957D
:100C20004F925F926F927F928F929F92AF92BF92FC
:100C3000CF92DF92EF92FF920F931F93CF93DF93A8
:100C4000CDB7DEB762970FB6F894DEBF0FBECDBF4B
:100C50004B015C01C901DA012801AB01BA8AA98AFA
:100C600069018D01AA16BB0609F056C06217730709
:100C700030F57A836983BC82AB82A9014F5F5F4FF5
:100C8000461B570B920169817A818B819C81629608
:100C90000FB6F894DEBF0FBECDBFDF91CF911F918D
:100CA0000F91FF90EF90DF90CF90BF90AF909F900B
:100CB0008F907F906F905F904F900C9466032617F3
:100CC000370748F49A838983BC82AB824F5F5F4FBA
:100CD000481B590BD7CF7A836983BC82AB82A201B0
:100CE00069817A818B819C8162960FB6F894DEBF10
:100CF0000FBECDBFDF91CF911F910F91FF90EF906D
:100D0000DF90CF90BF90AF909F908F907F906F902B
:100D10005F904F900C940A0C6217730799F54989FC
:100D20005A897A8369834A175B0720F5BC82AB82B4
:100D3000AD014F5F5F4F4A195B09920169817A816A
:100D40008B819C8162960FB6F894DEBF0FBECDBF3B
:100D5000DF91CF911F910F91FF90EF90DF90CF9097
:100D6000BF90AF909F908F907F906F905F904F90CB
:100D70000C949C03BC83AB83A5014F5F5F4F4A1B60
:100D80005B0BDBCFBD016A197B0977FF03C071954F
:100D9000619571099C012819390937FF03C0319504
:100DA00021953109261737072CF46D018C01A50117
:100DB0009A8A898AC416D50658F4F989EA891A8B61
:100DC000098B0F2F1E2FF42FE52FA601CF2EDE2E1D
:100DD0005601A41AB50A480189899A89881A990A7C
:100DE00097FE03C09194819491087501B7FE03C0EA
:100DF0009FEFE91AF90AF594E79489899A8980178F
:100E00009107C0F00FEF1FEFCA0126173707ECF16B
:100E1000C416D50608F05AC09C012F5F3F4F241717
:100E200035070CF08AC09A83898329893A893C83E3
:100E30002B834ECF01E010E0E7CFE818F9089A01C4
:100E40002F5F3F4F3901F7FE1FC09A01281B390B56
:100E50004817590769F149895A895E874D87988BE8
:100E60008F87A9014F5F5F4F92016D857E858F85CA
:100E700098890E949C03C30129893A89200F311F58
:100E80003A8B298BEA0CFB1CA301C416D506A8F6E5
:100E90009C012F5F3F4F241735070CF04EC0298966
:100EA0003A893A8329839C838B83481B590B45CF0E
:100EB00089899A899A8789875C874B87A201698586
:100EC0007A858B859C850E940A0CD5CFE818F90895
:100ED0009A012F5F3F4F3901F7FE1FC09A01281B6F
:100EE000390B48175907D9F09E838D8349895A8950
:100EF00058874F83A9014F5F5F4F92016D817E81BB
:100F00008F8198850E946603C30129893A89200F41
:100F1000311F3A8B298BEA0CFB1CA30179CF5A8332
:100F2000498389899A899C838B83A20169817A810B
:100F30008B819C810E940A0CE7CF62960FB6F894D1
:100F4000DEBF0FBECDBFDF91CF911F910F91FF90FC
:100F5000EF90DF90CF90BF90AF909F908F907F9059
:100F60006F905F904F9008952F923F924F925F92B3
:100F70006F927F928F929F92AF92BF92CF92DF92A9
:100F8000EF92FF920F931F93CF93DF93CDB7DEB70E
:100F900028970FB6F894DEBF0FBECDBF2B013C01E2
:100FA0001A0169010F8318870F811885000F111F1F
:100FB0004A01801A910AAF80B884A60EB71EBA8281
:100FC000A9827C826B829701A40169817A818B81DD
:100FD0009C810E946603BA82A982C30101979C0189
:100FE0002C0D3D1D3E832D833C832B839701A40153
:100FF00069817A818B819C810E946603C01AD10A23
:101000005A8249828F809884860C971C9C828B829E
:101010009701A60169817A818B819C810E949C0342
:1010200031E0431A5108240C351C3A8229829C82F3
:101030008B829701A60169817A818B819C810E94B4
:101040009C03BA82A9829C828B82870121E04F8116
:10105000588569817A818B819C810E94E7038F8109
:101060009885281A390A3A8229829C828B8222E04A
:10107000AC0169817A818B819C810E94E7033A826D
:101080002982CD80DE802F813885C21AD30ADC8286
:10109000CB8224E04F81588569817A818B819C8144
:1010A0000E94E703BA82A982DC82CB8228E04F81CA
:1010B000588569817A818B819C810E94E7032896FB
:1010C0000FB6F894DEBF0FBECDBFDF91CF911F9159
:1010D0000F91FF90EF90DF90CF90BF90AF909F90D7
:1010E0008F907F906F905F904F903F902F900895DA
:1010F0002F923F924F925F926F927F928F929F9228
:10110000AF92BF92CF92DF92EF92FF920F931F9315
:10111000CF93DF9300D000D000D0CDB7DEB72B0146
:101120003C015A012D833E83680147017801EE0C92
:10113000FF1C1801260E371E3A8229827C826B82A0
:101140002D813E812F5F3F4F4E195F0984016981D8
:101150007A818B819C810E94310C8D819E810197C7
:101160008E199F099E838D83C2010197A80EB91E17
:10117000C5018C199D099A8389835601A60CB71C59
:10118000BC82AB8274010D811E8121E0A6016981C0
:101190007A818B819C810E94FD043A822982BC82E3
:1011A000AB820D811E8122E0A60169817A818B814B
:1011B0009C810E94FD0426960FB6F894DEBF0FBEF8
:1011C000CDBFDF91CF911F910F91FF90EF90DF90F6
:1011D000CF90BF90AF909F908F907F906F905F90D7
:1011E0004F903F902F9008954F925F926F927F9211
:1011F0008F929F92AF92BF92CF92DF92EF92FF9227
:101200000F931F93CF93DF9300D000D000D0CDB7C2
:10121000DEB75B018E839D8339014A01502E412E3A
:101220007A8369838E819D819C838B83860169810A
:101230007A818B819C810E9410069701852D942DC7
:10124000AC017A8269829C828B8269817A818B81EE
:101250009C810E94100695018E819D81AC01FA82CD
:10126000E982852D942D9C838B8369817A818B8182
:101270009C810E94100626960FB6F894DEBF0FBE22
:10128000CDBFDF91CF911F910F91FF90EF90DF9035
:10129000CF90BF90AF909F908F907F906F905F9016
:1012A0004F9008952F923F924F925F926F927F924C
:1012B0008F929F92AF92BF92CF92DF92EF92FF9266
:1012C0000F931F93CF93DF93CDB7DEB76A970FB617
:1012D000F894DEBF0FBECDBF5B01898F9A8F2901C5
:1012E0004A01F7013801A98DBA8D4A175B0708F04A
:1012F00033C10A171B0708F438C1998D8A8D9A8E5D
:10130000898E892E982E9A2D8B2D5201492E582E7A
:10131000298D3A8D2615370509F044C0C5014A14B8
:101320005B0414F4C20125019F01E817F9072CF0B2
:101330004E165F060CF42F019C013A832983498DD8
:101340005A8D5C834B83421A530AA2014F5F5F4F51
:10135000960169817A818B819C816A960FB6F89497
:10136000DEBF0FBECDBFDF91CF911F910F91FF90D8
:10137000EF90DF90CF90BF90AF909F908F907F9035
:101380006F905F904F903F902F900C9466039A2D32
:101390008B2D5701E92FF82F998D8A8D098F1A8F80
:1013A000692E782EC2018A199B099C8B8B8BD401E4
:1013B000298D3A8DA21BB30BBE8BAD8BAF014A19A1
:1013C0005B095A834983C301821B930B9A8B898BD8
:1013D000DF01A419B509BE87AD8793012819390922
:1013E000388F2F8B6814790409F047C0788A6F868C
:1013F000098D1A8DF12CE12C312C212C2F85388967
:10140000201731070CF03FC0C801881999094D8594
:101410005E85849F7001859FF00C949FF00C1124D1
:10142000C801A98DBA8D8A1B9B0B49815A81849F63
:101430009001859F300D949F300D11243A872987A4
:10144000601671060CF051C06A960FB6F894DEBFB4
:101450000FBECDBFDF91CF911F910F91FF90EF9005
:10146000DF90CF90BF90AF909F908F907F906F90C4
:101470005F904F903F902F900895A40141505109E3
:10148000588B4F87B5CFC1016D897E890E9482102C
:101490009B012A0D3B1DC70169897A890E94821030
:1014A0006A0D7B1D8B899C89280E391EA981BA8102
:1014B000EA0EFB1E621773072CF4922F832F9B01F9
:1014C000692F782F3A8729871C870B87621B730B3C
:1014D000AB014F5F5F4F960169857A858B859C854F
:1014E0000E9466030F5F1F4F89CFC7016F89788DF8
:1014F0000E9482109B01240D351D89859A8569897A
:101500007A890E9482106A0D7B1D8D859E85E80E6A
:10151000F91EA985BA8549815A81A40FB51FBA87DA
:10152000A987621773072CF4922F832F9B01692FD1
:10153000782F3E832D8318870F83621B730BAB01BB
:101540004F5F5F4F96016D817E818F8198850E94EC
:1015500066030F5F1F4F74CF0417150708F0D8CE2E
:10156000498F5A8F4C0159012B016814790408F4F2
:101570000ECF998D8A8D098F1A8F692E782E9A2D0C
:101580008B2D5701E92FF82FB8CE8FEC97E00197FC
:10159000F1F700C0000047988FE39CE90197F1F74D
:1015A00000C00000479A9FEF2DEE82E0915020404E
:1015B0008040E1F700C00000089593E89093B000E8
:1015C00091E09093B1008093B30008959C019093B3
:1015D0003F0280933E0286E390E080930040211515
:1015E0003105A9F580EF90E090933B0280933A0299
:1015F00080E491E090933D0280933C0288E490E087
:10160000809300418AE290E08093004030E020E047
:10161000309300412093004180913A0290913B0227
:10162000019790930041809300418BE290E080937A
:101630000040309300412093004180913C02909102
:101640003D0201979093004180930041089521301D
:10165000310579F480E491E090933B0280933A0263
:1016600080EF90E090933D0280933C0288EE90E002
:10167000C7CF2230310579F480EF90E090933B02A0
:1016800080933A0280E491E090933D0280933C0283
:1016900088E890E0B5CF2330310509F0B3CF80E47E
:1016A00091E090933B0280933A0280EF90E0909318
:1016B0003D0280933C0288E290E0A2CF0F931F93FB
:1016C000CF93DF93CDB7DEB72C970FB6F894DEBF7C
:1016D0000FBECDBF29833A834B835C836D837E83AA
:1016E0008F839887A80169817A812B813C818D81C4
:1016F0009E81AF81B885EAE2F0E0E093004070930C
:101700000041609300413093004120930041EBE29F
:10171000F0E0E09300409093004180930041B0934B
:101720000041A0930041ECE2F0E0E09300402F5F25
:101730003F4F261B370B1196A81BB90B0E94961022
:1017400069877A878B879C87DC01CB0124E0B6957B
:10175000A795979587952A95D1F79C0189859A85B4
:101760008F709927019770F42115310581F42C961B
:101770000FB6F894DEBF0FBECDBFDF91CF911F91A2
:101780000F9108955093004140930041EBCF509347
:1017900000414093004150930041409300415093D9
:1017A00000414093004150930041409300415093C9
:1017B00000414093004150930041409300415093B9
:1017C00000414093004150930041409300415093A9
:1017D0000041409300415093004140930041509399
:1017E0000041409300415093004140930041509389
:1017F0000041409300415093004140930041509379
:1018000000414093004150930041409300412150DA
:101810003109AACF0F931F939C01CA014AE250E0FD
:1018200040930040709300416093004170930041E9
:10183000609300414BE250E0409300403093004100
:101840002093004130930041209300412CE230E08E
:101850002093004090930041809300411F910F918D
:101860000895CF92DF92EF92FF920F931F93CF9341
:10187000DF93CDB7DEB728970FB6F894DEBF0FBE63
:10188000CDBF6B017A83698361507109640F751F45
:10189000462F7C836B83682F9E838D830197820FF5
:1018A000931F98878F832C2D3A815C817E81988548
:1018B0000E945E0B28960FB6F894DEBF0FBECDBF18
:1018C000DF91CF911F910F91FF90EF90DF90CF901C
:1018D00008950F931F93CF93DF93CDB7DEB728976B
:1018E0000FB6F894DEBF0FBECDBF29833A834B837A
:1018F0005C836D837E838F83988789819A814B81F6
:101900005C816D817E81AF81B8852AE230E02093D1
:1019100000409093004180930041509300414093D8
:1019200000412BE230E0209300407093004160932F
:101930000041B0930041A09300412CE230E020939D
:10194000004048175907D0F428960FB6F894DEBF28
:101950000FBECDBFDF91CF911F910F910895F80178
:101960000191119110930041009300412F5F3F4F6F
:101970008F01A217B30798F70196E3CF9B01F9CF28
:101980000F931F93CF93DF93CDB7DEB728970FB692
:10199000F894DEBF0FBECDBFEAE3F2E017821682F5
:1019A000118610861A821982808191810197482FB1
:1019B0009C838B831E821D828281938101979887ED
:1019C0008F830485158520E03A815C8160E07E810B
:1019D00098850E945E0B28960FB6F894DEBF0FBE66
:1019E000CDBFDF91CF911F910F910895CF92DF92DC
:1019F000EF92FF920F931F93CF93DF937C01D62F2B
:101A0000C72F8A0186E08093750080E88093740078
:101A10003F9A249A0E94C50A88E290E08093004091
:101A200081E190E0809300402FEF86E791E0215024
:101A300080409040E1F700C0000081E090E02BEC96
:101A400030E0209300408093004120EC30E0209370
:101A5000004028E036E2309300412093004121EC21
:101A600030E040E150E0209300404093004125ECFD
:101A700030E0209300402EE335E330930041209383
:101A8000004127EC30E045EB50E0209300404093CC
:101A9000004126EF30E02093004080930041D12C9C
:101AA000C12CD0920041C09200418AE390E025E52C
:101AB00030E08093004020930041C7010E94E60A75
:101AC0000E94C00CEAE3F2E01782168211861086AB
:101AD00004871587D287C38789E290E0809300400E
:101AE0002FE788E391E0215080409040E1F700C06B
:101AF000000085E390E080930040C0920041EAE658
:101B0000F0E08081806280832C9ADF91CF911F91D9
:101B10000F91FF90EF90DF90CF90089550E040E05C
:101B20006FEF7FEF90E080E00C94F60C6F927F9265
:101B30008F929F92AF92BF92CF92DF92EF92FF92DD
:101B40000F931F93CF93DF93E82FB62EA72EDA01C2
:101B50008091420290914302EA3009F510924102CD
:101B60001092400208969093430280934202209183
:101B70003C0230913D028217930708F46BC0DF915D
:101B8000CF911F910F91FF90EF90DF90CF90BF907A
:101B9000AF909F908F907F906F900C94C00CE0520C
:101BA000EF3508F057C02091400230914102890181
:101BB0000C5F1F4FEC01279645E0E402F001112471
:101BC000E856FF4F4BE250E04093004090930041B5
:101BD00080930041D0930041C09300416AE270E0DD
:101BE0004CE2E42EF12C8A2E7B2E0217130708F00C
:101BF00040C04AE250E040930040309300412093BF
:101C0000004130930041209300412CE230E02093CA
:101C10000040C817D90708F054C080914002909145
:101C200041020696909341028093400220913A022D
:101C300030913B028217930768F010924102109294
:101C40004002809142029091430208969093430291
:101C500080934202DF91CF911F910F91FF90EF90FF
:101C6000DF90CF90BF90AF909F908F907F906F90BC
:101C700008956093004030930041209300413093D9
:101C8000004120930041E0920040649031966C0145
:101C900099249394CC15DD0518F42F5F3F4FA5CF01
:101CA000492D462159F4482D572D5093004140931A
:101CB00000414FEFC41AD40A990CECCF4B2D5A2D8A
:101CC000F4CFB0930041A09300410196A2CFDF92E0
:101CD000EF92FF920F931F93CF93DF93EC01E22ECD
:101CE000D32E50934102409340027093430260937D
:101CF0004202F12CFE01EF0DF11D8081811108C01F
:101D0000DF91CF911F910F91FF90EF90DF90089599
:101D1000A8016E2D7D2D0E94960DF394EBCFCF93ED
:101D2000DF9300D000D00F92CDB7DEB7873708F031
:101D300044C0883008F444C08D3308F03FC08F3170
:101D400008F042C0803108F442C022E02D8321EB2C
:101D500030E0209300409D8190930041282F30E097
:101D600050E040E029833A834B835C83CA01B90188
:101D70000E945C119B01AC0160E070E080EF94E494
:101D80000E94B91069837A838B839C8369817A81ED
:101D90008B819C810E942B1170E00D8002C0759593
:101DA00067950A94E2F7609300410F900F900F90AF
:101DB0000F900F90DF91CF91089586E71D82C7CFD6
:101DC00088E033E03D83C3CF41E04D83C0CF53E093
:101DD0005D83BDCF00D000D0CDB7DEB7E1E6F0E047
:101DE00080E88083108250E040E06FEF7FEF81E079
:101DF00090E00E945B0110E000E02FEF3FEF48E42D
:101E000051E060E070E0CB010E94D1032FEF3FEF83
:101E100047E651E060E070E08AE090E00E94D10384
:101E20002091000130910101409102015091030184
:101E300000EE17E060E070E084E190E00E941006A0
:101E40008091040190910501A0910601B0910701D4
:101E500010E000E02FEF3FEF42E751E0BC01CD0181
:101E60000E94D1038091080190910901A0910A017B
:101E7000B0910B01D12CC12C20EEE22E27E0F22EE6
:101E800003E02AE030E042E350E0BC01CD010E94D3
:101E90005D0180910C0190910D01A0910E01B09116
:101EA0000F0110E000E02FEF3FEF4DE751E0BC01E4
:101EB000CD010E94D1038091100190911101A09158
:101EC0001201B091130105E010E02AE030E042E396
:101ED00050E0BC01CD010E94B40710E000E02FEFFC
:101EE0003FEF4FE851E060E070E083E290E00E9455
:101EF000D10300EE17E02AE030E042E350E060E07A
:101F000070E08DE290E00E94E003809114019091D6
:101F10001501A0911601B091170110E000E02FEF1C
:101F20003FEF4AE951E0BC01CD010E94D10380910D
:101F3000180190911901A0911A01B0911B0105E0BF
:101F400010E02AE030E042E350E0BC01CD010E9405
:101F5000780880911C0190911D01A0911E01B09103
:101F60001F0110E000E02FEF3FEF4CEA51E0BC0111
:101F7000CD010E94D1038091200190912101A09177
:101F80002201B091230120EE37E047E050E0BC0190
:101F9000CD010E9400022FEF3FEF49EB51E060E0DE
:101FA00070E081E490E00E94D1038091240190913F
:101FB0002501A0912601B091270120EE37E047E0EE
:101FC00050E0BC01CD010E94CB0580912801909189
:101FD0002901A0912A01B0912B012FEF3FEF46EC90
:101FE00051E0BC01CD010E94D10380902C01909062
:101FF0002D01A0902E01B0902F0120913001309141
:10200000310140913201509133018091340190911E
:102010003501A0913601B091370160EEC62E67E020
:10202000D62E85017401BC01CD010E94F408809177
:10203000380190913901A0913A01B0913B0110E033
:1020400000E02FEF3FEF45ED51E0BC01CD010E94D4
:10205000D10380903C0190903D01A0903E01B09052
:102060003F01209140013091410140914201509146
:1020700043018091440190914501A0914601B091A6
:10208000470185017401BC01CD010E9452090FE195
:1020900010E020EE37E044EE51E060E070E083E7CE
:1020A00090E00E94D10300EE1FEF30E020E04BEF04
:1020B00051E060E070E08DE790E00E94D10310E015
:1020C00000E02FEF3FEF47E152E060E070E081E990
:1020D00090E00E94D10370E1E72E7CEFF72E08E03C
:1020E00010E02FE030E042E350E060E070E08BE988
:1020F00090E00E94780890E080E00F900F900F90A1
:102100000F90089597FB072E16F4009407D077FDE3
:1021100009D00E94A51007FC05D03EF4909581954A
:102120009F4F0895709561957F4F0895A29FB001CC
:10213000B39FC001A39F700D811D1124911DB29FFB
:10214000700D811D1124911D0895AA1BBB1B51E127
:1021500007C0AA1FBB1FA617B70710F0A61BB70B17
:10216000881F991F5A95A9F780959095BC01CD01BC
:1021700008950E94CD100C94AE110E94A71158F042
:102180000E94A01140F029F45F3F29F00C949711B0
:1021900051110C94E2110C949D110E94BF1168F32F
:1021A0009923B1F3552391F3951B550BBB27AA2710
:1021B00062177307840738F09F5F5F4F220F331F4A
:1021C000441FAA1FA9F335D00E2E3AF0E0E832D012
:1021D00091505040E695001CCAF72BD0FE2F29D015
:1021E000660F771F881FBB1F261737074807AB07E7
:1021F000B0E809F0BB0B802DBF01FF2793585F4F5C
:102200003AF09E3F510578F00C9497110C94E2112E
:102210005F3FE4F3983ED4F3869577956795B7953D
:10222000F7959F5FC9F7880F911D9695879597F948
:102230000895E1E0660F771F881FBB1F62177307C1
:102240008407BA0720F0621B730B840BBA0BEE1FD6
:1022500088F7E09508950E94C71188F09F5798F07D
:10226000B92F9927B751B0F0E1F0660F771F881F9B
:10227000991F1AF0BA95C9F714C0B13091F00E94B5
:10228000E111B1E008950C94E111672F782F8827B0
:10229000B85F39F0B93FCCF3869577956795B395DC
:1022A000D9F73EF490958095709561957F4F8F4F4B
:1022B0009F4F0895E89409C097FB3EF49095809550
:1022C000709561957F4F8F4F9F4F9923A9F0F92FFC
:1022D00096E9BB279395F695879577956795B7957A
:1022E000F111F8CFFAF4BB0F11F460FF1BC06F5F60
:1022F0007F4F8F4F9F4F16C0882311F096E911C072
:10230000772321F09EE8872F762F05C0662371F092
:1023100096E8862F70E060E02AF09A95660F771FA6
:10232000881FDAF7880F9695879597F9089597F99A
:102330009F6780E870E060E008959FEF80EC08956B
:1023400000240A9416161706180609060895002494
:102350000A9412161306140605060895092E03940E
:10236000000C11F4882352F0BB0F40F4BF2B11F482
:1023700060FF04C06F5F7F4F8F4F9F4F089557FDE1
:102380009058440F551F59F05F3F71F04795880FE3
:1023900097FB991F61F09F3F79F08795089512167A
:1023A00013061406551FF2CF4695F1DF08C0161626
:1023B00017061806991FF1CF8695710561050894D7
:1023C0000895E894BB2766277727CB0197F90895EE
:0423D000F894FFCFAF
:1023D40032001E0050000A0050001400A0000A0041
:1023E400A00014005000230050002D00C80023005A
:1023F400D200350008005300500041006400500032
:102404005500640050004B00C8004100DC0050003F
:10241400CD006400C8004B0044656D6F6E73747228
:102424006174696F6E206F66204C61466F727475BB
:102434006E612D4C4344006772447261774C696E3F
:102444006500677244726177526563740067724411
:10245400726177526F756E64656452656374006768
:102464007246696C6C5265637400677246696C6C81
:10247400526F756E6465645265637400677244726A
:102484006177436972636C6500677246696C6C437B
:102494006972636C65006772447261775472696132
:1024A4006E676C6500677246696C6C547269616E24
:1024B400676C65004E6F7720736F6D6520636F6C7A
:1024C4006F75726564207465787400416E6420735E
:1024D4006F6D65206D6F726520636F6C6F757265CB
:1024E400642074657874005573696E67205247429E
:1024F4005F434F4E56455254283235352C203132E5
:08250400382C20313238290087
:00000001FF
